{
  "contractName": "Bridge",
  "abi": [
    {
      "anonymous": false,
      "inputs": [
        {
          "indexed": false,
          "internalType": "address",
          "name": "previousAdmin",
          "type": "address"
        },
        {
          "indexed": false,
          "internalType": "address",
          "name": "newAdmin",
          "type": "address"
        }
      ],
      "name": "AdminChanged",
      "type": "event"
    },
    {
      "anonymous": false,
      "inputs": [
        {
          "indexed": true,
          "internalType": "address",
          "name": "beacon",
          "type": "address"
        }
      ],
      "name": "BeaconUpgraded",
      "type": "event"
    },
    {
      "anonymous": false,
      "inputs": [
        {
          "indexed": true,
          "internalType": "address",
          "name": "oldContract",
          "type": "address"
        },
        {
          "indexed": true,
          "internalType": "address",
          "name": "newContract",
          "type": "address"
        }
      ],
      "name": "ContractUpgraded",
      "type": "event"
    },
    {
      "anonymous": false,
      "inputs": [
        {
          "indexed": true,
          "internalType": "address",
          "name": "implementation",
          "type": "address"
        }
      ],
      "name": "Upgraded",
      "type": "event"
    },
    {
      "inputs": [],
      "name": "WETH",
      "outputs": [
        {
          "internalType": "contract IWETH",
          "name": "",
          "type": "address"
        }
      ],
      "stateMutability": "view",
      "type": "function"
    },
    {
      "inputs": [
        {
          "internalType": "uint16",
          "name": "chainId_",
          "type": "uint16"
        }
      ],
      "name": "bridgeContracts",
      "outputs": [
        {
          "internalType": "bytes32",
          "name": "",
          "type": "bytes32"
        }
      ],
      "stateMutability": "view",
      "type": "function"
    },
    {
      "inputs": [],
      "name": "chainId",
      "outputs": [
        {
          "internalType": "uint16",
          "name": "",
          "type": "uint16"
        }
      ],
      "stateMutability": "view",
      "type": "function"
    },
    {
      "inputs": [
        {
          "internalType": "bytes32",
          "name": "hash",
          "type": "bytes32"
        }
      ],
      "name": "governanceActionIsConsumed",
      "outputs": [
        {
          "internalType": "bool",
          "name": "",
          "type": "bool"
        }
      ],
      "stateMutability": "view",
      "type": "function"
    },
    {
      "inputs": [],
      "name": "governanceChainId",
      "outputs": [
        {
          "internalType": "uint16",
          "name": "",
          "type": "uint16"
        }
      ],
      "stateMutability": "view",
      "type": "function"
    },
    {
      "inputs": [],
      "name": "governanceContract",
      "outputs": [
        {
          "internalType": "bytes32",
          "name": "",
          "type": "bytes32"
        }
      ],
      "stateMutability": "view",
      "type": "function"
    },
    {
      "inputs": [
        {
          "internalType": "address",
          "name": "impl",
          "type": "address"
        }
      ],
      "name": "isInitialized",
      "outputs": [
        {
          "internalType": "bool",
          "name": "",
          "type": "bool"
        }
      ],
      "stateMutability": "view",
      "type": "function"
    },
    {
      "inputs": [
        {
          "internalType": "bytes32",
          "name": "hash",
          "type": "bytes32"
        }
      ],
      "name": "isTransferCompleted",
      "outputs": [
        {
          "internalType": "bool",
          "name": "",
          "type": "bool"
        }
      ],
      "stateMutability": "view",
      "type": "function"
    },
    {
      "inputs": [
        {
          "internalType": "address",
          "name": "token",
          "type": "address"
        }
      ],
      "name": "isWrappedAsset",
      "outputs": [
        {
          "internalType": "bool",
          "name": "",
          "type": "bool"
        }
      ],
      "stateMutability": "view",
      "type": "function"
    },
    {
      "inputs": [
        {
          "internalType": "address",
          "name": "token",
          "type": "address"
        }
      ],
      "name": "outstandingBridged",
      "outputs": [
        {
          "internalType": "uint256",
          "name": "",
          "type": "uint256"
        }
      ],
      "stateMutability": "view",
      "type": "function"
    },
    {
      "inputs": [
        {
          "internalType": "bytes",
          "name": "encoded",
          "type": "bytes"
        }
      ],
      "name": "parseRegisterChain",
      "outputs": [
        {
          "components": [
            {
              "internalType": "bytes32",
              "name": "module",
              "type": "bytes32"
            },
            {
              "internalType": "uint8",
              "name": "action",
              "type": "uint8"
            },
            {
              "internalType": "uint16",
              "name": "chainId",
              "type": "uint16"
            },
            {
              "internalType": "uint16",
              "name": "emitterChainID",
              "type": "uint16"
            },
            {
              "internalType": "bytes32",
              "name": "emitterAddress",
              "type": "bytes32"
            }
          ],
          "internalType": "struct BridgeStructs.RegisterChain",
          "name": "chain",
          "type": "tuple"
        }
      ],
      "stateMutability": "pure",
      "type": "function"
    },
    {
      "inputs": [
        {
          "internalType": "bytes",
          "name": "encoded",
          "type": "bytes"
        }
      ],
      "name": "parseUpgrade",
      "outputs": [
        {
          "components": [
            {
              "internalType": "bytes32",
              "name": "module",
              "type": "bytes32"
            },
            {
              "internalType": "uint8",
              "name": "action",
              "type": "uint8"
            },
            {
              "internalType": "uint16",
              "name": "chainId",
              "type": "uint16"
            },
            {
              "internalType": "bytes32",
              "name": "newContract",
              "type": "bytes32"
            }
          ],
          "internalType": "struct BridgeStructs.UpgradeContract",
          "name": "chain",
          "type": "tuple"
        }
      ],
      "stateMutability": "pure",
      "type": "function"
    },
    {
      "inputs": [
        {
          "internalType": "bytes",
          "name": "encodedVM",
          "type": "bytes"
        }
      ],
      "name": "registerChain",
      "outputs": [],
      "stateMutability": "nonpayable",
      "type": "function"
    },
    {
      "inputs": [],
      "name": "tokenImplementation",
      "outputs": [
        {
          "internalType": "address",
          "name": "",
          "type": "address"
        }
      ],
      "stateMutability": "view",
      "type": "function"
    },
    {
      "inputs": [
        {
          "internalType": "bytes",
          "name": "encodedVM",
          "type": "bytes"
        }
      ],
      "name": "upgrade",
      "outputs": [],
      "stateMutability": "nonpayable",
      "type": "function"
    },
    {
      "inputs": [],
      "name": "wormhole",
      "outputs": [
        {
          "internalType": "contract IWormhole",
          "name": "",
          "type": "address"
        }
      ],
      "stateMutability": "view",
      "type": "function"
    },
    {
      "inputs": [
        {
          "internalType": "uint16",
          "name": "tokenChainId",
          "type": "uint16"
        },
        {
          "internalType": "bytes32",
          "name": "tokenAddress",
          "type": "bytes32"
        }
      ],
      "name": "wrappedAsset",
      "outputs": [
        {
          "internalType": "address",
          "name": "",
          "type": "address"
        }
      ],
      "stateMutability": "view",
      "type": "function"
    },
    {
      "stateMutability": "payable",
      "type": "receive"
    },
    {
      "inputs": [
        {
          "internalType": "address",
          "name": "tokenAddress",
          "type": "address"
        },
        {
          "internalType": "uint32",
          "name": "nonce",
          "type": "uint32"
        }
      ],
      "name": "attestToken",
      "outputs": [
        {
          "internalType": "uint64",
          "name": "sequence",
          "type": "uint64"
        }
      ],
      "stateMutability": "payable",
      "type": "function"
    },
    {
      "inputs": [
        {
          "internalType": "uint16",
          "name": "recipientChain",
          "type": "uint16"
        },
        {
          "internalType": "bytes32",
          "name": "recipient",
          "type": "bytes32"
        },
        {
          "internalType": "uint256",
          "name": "arbiterFee",
          "type": "uint256"
        },
        {
          "internalType": "uint32",
          "name": "nonce",
          "type": "uint32"
        }
      ],
      "name": "wrapAndTransferETH",
      "outputs": [
        {
          "internalType": "uint64",
          "name": "sequence",
          "type": "uint64"
        }
      ],
      "stateMutability": "payable",
      "type": "function"
    },
    {
      "inputs": [
        {
          "internalType": "uint16",
          "name": "recipientChain",
          "type": "uint16"
        },
        {
          "internalType": "bytes32",
          "name": "recipient",
          "type": "bytes32"
        },
        {
          "internalType": "uint256",
          "name": "arbiterFee",
          "type": "uint256"
        },
        {
          "internalType": "uint32",
          "name": "nonce",
          "type": "uint32"
        },
        {
          "internalType": "bytes",
          "name": "payload",
          "type": "bytes"
        }
      ],
      "name": "wrapAndTransferETHWithPayload",
      "outputs": [
        {
          "internalType": "uint64",
          "name": "sequence",
          "type": "uint64"
        }
      ],
      "stateMutability": "payable",
      "type": "function"
    },
    {
      "inputs": [
        {
          "internalType": "address",
          "name": "token",
          "type": "address"
        },
        {
          "internalType": "uint256",
          "name": "amount",
          "type": "uint256"
        },
        {
          "internalType": "uint16",
          "name": "recipientChain",
          "type": "uint16"
        },
        {
          "internalType": "bytes32",
          "name": "recipient",
          "type": "bytes32"
        },
        {
          "internalType": "uint256",
          "name": "arbiterFee",
          "type": "uint256"
        },
        {
          "internalType": "uint32",
          "name": "nonce",
          "type": "uint32"
        }
      ],
      "name": "transferTokens",
      "outputs": [
        {
          "internalType": "uint64",
          "name": "sequence",
          "type": "uint64"
        }
      ],
      "stateMutability": "payable",
      "type": "function"
    },
    {
      "inputs": [
        {
          "internalType": "address",
          "name": "token",
          "type": "address"
        },
        {
          "internalType": "uint256",
          "name": "amount",
          "type": "uint256"
        },
        {
          "internalType": "uint16",
          "name": "recipientChain",
          "type": "uint16"
        },
        {
          "internalType": "bytes32",
          "name": "recipient",
          "type": "bytes32"
        },
        {
          "internalType": "uint256",
          "name": "arbiterFee",
          "type": "uint256"
        },
        {
          "internalType": "uint32",
          "name": "nonce",
          "type": "uint32"
        },
        {
          "internalType": "bytes",
          "name": "payload",
          "type": "bytes"
        }
      ],
      "name": "transferTokensWithPayload",
      "outputs": [
        {
          "internalType": "uint64",
          "name": "sequence",
          "type": "uint64"
        }
      ],
      "stateMutability": "payable",
      "type": "function"
    },
    {
      "inputs": [
        {
          "internalType": "bytes",
          "name": "encodedVm",
          "type": "bytes"
        }
      ],
      "name": "updateWrapped",
      "outputs": [
        {
          "internalType": "address",
          "name": "token",
          "type": "address"
        }
      ],
      "stateMutability": "nonpayable",
      "type": "function"
    },
    {
      "inputs": [
        {
          "internalType": "bytes",
          "name": "encodedVm",
          "type": "bytes"
        }
      ],
      "name": "createWrapped",
      "outputs": [
        {
          "internalType": "address",
          "name": "token",
          "type": "address"
        }
      ],
      "stateMutability": "nonpayable",
      "type": "function"
    },
    {
      "inputs": [
        {
          "internalType": "bytes",
          "name": "encodedVm",
          "type": "bytes"
        },
        {
          "internalType": "address",
          "name": "feeRecipient",
          "type": "address"
        }
      ],
      "name": "completeTransferWithPayload",
      "outputs": [
        {
          "internalType": "bytes",
          "name": "",
          "type": "bytes"
        }
      ],
      "stateMutability": "nonpayable",
      "type": "function"
    },
    {
      "inputs": [
        {
          "internalType": "bytes",
          "name": "encodedVm",
          "type": "bytes"
        },
        {
          "internalType": "address",
          "name": "feeRecipient",
          "type": "address"
        }
      ],
      "name": "completeTransferAndUnwrapETHWithPayload",
      "outputs": [
        {
          "internalType": "bytes",
          "name": "",
          "type": "bytes"
        }
      ],
      "stateMutability": "nonpayable",
      "type": "function"
    },
    {
      "inputs": [
        {
          "internalType": "bytes",
          "name": "encodedVm",
          "type": "bytes"
        }
      ],
      "name": "completeTransfer",
      "outputs": [],
      "stateMutability": "nonpayable",
      "type": "function"
    },
    {
      "inputs": [
        {
          "internalType": "bytes",
          "name": "encodedVm",
          "type": "bytes"
        }
      ],
      "name": "completeTransferAndUnwrapETH",
      "outputs": [],
      "stateMutability": "nonpayable",
      "type": "function"
    },
    {
      "inputs": [
        {
          "components": [
            {
              "internalType": "uint8",
              "name": "payloadID",
              "type": "uint8"
            },
            {
              "internalType": "bytes32",
              "name": "tokenAddress",
              "type": "bytes32"
            },
            {
              "internalType": "uint16",
              "name": "tokenChain",
              "type": "uint16"
            },
            {
              "internalType": "uint8",
              "name": "decimals",
              "type": "uint8"
            },
            {
              "internalType": "bytes32",
              "name": "symbol",
              "type": "bytes32"
            },
            {
              "internalType": "bytes32",
              "name": "name",
              "type": "bytes32"
            }
          ],
          "internalType": "struct BridgeStructs.AssetMeta",
          "name": "meta",
          "type": "tuple"
        }
      ],
      "name": "encodeAssetMeta",
      "outputs": [
        {
          "internalType": "bytes",
          "name": "encoded",
          "type": "bytes"
        }
      ],
      "stateMutability": "pure",
      "type": "function"
    },
    {
      "inputs": [
        {
          "components": [
            {
              "internalType": "uint8",
              "name": "payloadID",
              "type": "uint8"
            },
            {
              "internalType": "uint256",
              "name": "amount",
              "type": "uint256"
            },
            {
              "internalType": "bytes32",
              "name": "tokenAddress",
              "type": "bytes32"
            },
            {
              "internalType": "uint16",
              "name": "tokenChain",
              "type": "uint16"
            },
            {
              "internalType": "bytes32",
              "name": "to",
              "type": "bytes32"
            },
            {
              "internalType": "uint16",
              "name": "toChain",
              "type": "uint16"
            },
            {
              "internalType": "uint256",
              "name": "fee",
              "type": "uint256"
            }
          ],
          "internalType": "struct BridgeStructs.Transfer",
          "name": "transfer",
          "type": "tuple"
        }
      ],
      "name": "encodeTransfer",
      "outputs": [
        {
          "internalType": "bytes",
          "name": "encoded",
          "type": "bytes"
        }
      ],
      "stateMutability": "pure",
      "type": "function"
    },
    {
      "inputs": [
        {
          "components": [
            {
              "internalType": "uint8",
              "name": "payloadID",
              "type": "uint8"
            },
            {
              "internalType": "uint256",
              "name": "amount",
              "type": "uint256"
            },
            {
              "internalType": "bytes32",
              "name": "tokenAddress",
              "type": "bytes32"
            },
            {
              "internalType": "uint16",
              "name": "tokenChain",
              "type": "uint16"
            },
            {
              "internalType": "bytes32",
              "name": "to",
              "type": "bytes32"
            },
            {
              "internalType": "uint16",
              "name": "toChain",
              "type": "uint16"
            },
            {
              "internalType": "uint256",
              "name": "fee",
              "type": "uint256"
            },
            {
              "internalType": "bytes",
              "name": "payload",
              "type": "bytes"
            }
          ],
          "internalType": "struct BridgeStructs.TransferWithPayload",
          "name": "transfer",
          "type": "tuple"
        }
      ],
      "name": "encodeTransferWithPayload",
      "outputs": [
        {
          "internalType": "bytes",
          "name": "encoded",
          "type": "bytes"
        }
      ],
      "stateMutability": "pure",
      "type": "function"
    },
    {
      "inputs": [
        {
          "internalType": "bytes",
          "name": "encoded",
          "type": "bytes"
        }
      ],
      "name": "parseAssetMeta",
      "outputs": [
        {
          "components": [
            {
              "internalType": "uint8",
              "name": "payloadID",
              "type": "uint8"
            },
            {
              "internalType": "bytes32",
              "name": "tokenAddress",
              "type": "bytes32"
            },
            {
              "internalType": "uint16",
              "name": "tokenChain",
              "type": "uint16"
            },
            {
              "internalType": "uint8",
              "name": "decimals",
              "type": "uint8"
            },
            {
              "internalType": "bytes32",
              "name": "symbol",
              "type": "bytes32"
            },
            {
              "internalType": "bytes32",
              "name": "name",
              "type": "bytes32"
            }
          ],
          "internalType": "struct BridgeStructs.AssetMeta",
          "name": "meta",
          "type": "tuple"
        }
      ],
      "stateMutability": "pure",
      "type": "function"
    },
    {
      "inputs": [
        {
          "internalType": "bytes",
          "name": "encoded",
          "type": "bytes"
        }
      ],
      "name": "parseTransfer",
      "outputs": [
        {
          "components": [
            {
              "internalType": "uint8",
              "name": "payloadID",
              "type": "uint8"
            },
            {
              "internalType": "uint256",
              "name": "amount",
              "type": "uint256"
            },
            {
              "internalType": "bytes32",
              "name": "tokenAddress",
              "type": "bytes32"
            },
            {
              "internalType": "uint16",
              "name": "tokenChain",
              "type": "uint16"
            },
            {
              "internalType": "bytes32",
              "name": "to",
              "type": "bytes32"
            },
            {
              "internalType": "uint16",
              "name": "toChain",
              "type": "uint16"
            },
            {
              "internalType": "uint256",
              "name": "fee",
              "type": "uint256"
            }
          ],
          "internalType": "struct BridgeStructs.Transfer",
          "name": "transfer",
          "type": "tuple"
        }
      ],
      "stateMutability": "pure",
      "type": "function"
    }
  ],
  "bytecode": "0x608060405234801561001057600080fd5b506001600c556154a6806100256000396000f3fe6080604052600436106200021b5760003560e01c80639a8a05921162000123578063c48fa11511620000ad578063f1777fd81162000078578063f1777fd814620007c0578063f768441f14620007e5578063fbe3c2cd146200080a578063fbeeacd9146200082b578063ff200cde146200088b57600080fd5b8063c48fa1151462000722578063c68785191462000739578063d60b347f146200075e578063e8059810146200079b57600080fd5b8063ad66a5f111620000ee578063ad66a5f11462000668578063b046223b14620006ac578063b172b22214620006d1578063b96c7e4d14620006e857600080fd5b80639a8a059214620005c5578063a5799f9314620005ef578063aa4efa5b1462000614578063ad5c4648146200064857600080fd5b80632b51137511620001a557806357a3a13e116200017057806357a3a13e14620005445780635f854266146200056957806384acd1bb146200058e5780639981509f14620005ae57600080fd5b80632b51137514620004335780632c3c02a414620004bc5780632f3a3d5d14620004f05780635662d9d8146200051057600080fd5b80631a2be4da11620001e65780631a2be4da14620003695780631aa63eff14620003b75780631ff1e28614620003ce57806325394645146200040c57600080fd5b806301f53255146200022857806307dfd8fb14620002a65780630f5287b0146200032257806316a04a9d146200035257600080fd5b366200022357005b600080fd5b3480156200023557600080fd5b506200024d6200024736600462003fb0565b620008b0565b6040516200029d9190600060a0820190508251825260ff6020840151166020830152604083015161ffff808216604085015280606086015116606085015250506080830151608083015292915050565b60405180910390f35b348015620002b357600080fd5b50620002cb620002c536600462003fb0565b62000aba565b6040516200029d9190600060c08201905060ff83511682526020830151602083015261ffff604084015116604083015260ff60608401511660608301526080830151608083015260a083015160a083015292915050565b620003396200033336600462003e24565b62000c49565b6040516001600160401b0390911681526020016200029d565b620003396200036336600462003e8f565b62000ced565b3480156200037657600080fd5b50620003a66200038836600462003e07565b6001600160a01b031660009081526009602052604090205460ff1690565b60405190151581526020016200029d565b62000339620003c8366004620044a7565b62000d93565b348015620003db57600080fd5b50620003f3620003ed3660046200442b565b62000dd5565b6040516001600160a01b0390911681526020016200029d565b3480156200041957600080fd5b50620004316200042b36600462003fb0565b62000e04565b005b3480156200044057600080fd5b50620004586200045236600462003fb0565b62000ee8565b6040516200029d9190600060e08201905060ff83511682526020830151602083015260408301516040830152606083015161ffff8082166060850152608085015160808501528060a08601511660a0850152505060c083015160c083015292915050565b348015620004c957600080fd5b50620003a6620004db36600462003f7e565b60009081526005602052604090205460ff1690565b348015620004fd57600080fd5b506001546001600160a01b0316620003f3565b3480156200051d57600080fd5b50620005356200052f36600462003fe6565b620010c3565b6040516200029d91906200466f565b3480156200055157600080fd5b50620005356200056336600462003fe6565b620010da565b3480156200057657600080fd5b506200053562000588366004620041d9565b620010ea565b3480156200059b57600080fd5b506000546001600160a01b0316620003f3565b62000339620005bf36600462004459565b6200117f565b348015620005d257600080fd5b5060025461ffff165b60405161ffff90911681526020016200029d565b348015620005fc57600080fd5b50620004316200060e36600462003fb0565b620011bf565b3480156200062157600080fd5b50620003a66200063336600462003f7e565b60009081526006602052604090205460ff1690565b3480156200065557600080fd5b506004546001600160a01b0316620003f3565b3480156200067557600080fd5b506200069d62000687366004620043ed565b61ffff166000908152600b602052604090205490565b6040519081526020016200029d565b348015620006b957600080fd5b5062000535620006cb3660046200406d565b6200132c565b348015620006de57600080fd5b506003546200069d565b348015620006f557600080fd5b506200069d6200070736600462003e07565b6001600160a01b03166000908152600a602052604090205490565b620003396200073336600462003f26565b620013a5565b3480156200074657600080fd5b50620004316200075836600462003fb0565b620016b6565b3480156200076b57600080fd5b50620003a66200077d36600462003e07565b6001600160a01b031660009081526007602052604090205460ff1690565b348015620007a857600080fd5b50620003f3620007ba36600462003fb0565b620016c8565b348015620007cd57600080fd5b5062000535620007df36600462004107565b620017dd565b348015620007f257600080fd5b50620003f36200080436600462003fb0565b62001820565b3480156200081757600080fd5b5060025462010000900461ffff16620005db565b3480156200083857600080fd5b50620008506200084a36600462003fb0565b62001935565b6040516200029d91908151815260208083015160ff169082015260408083015161ffff16908201526060918201519181019190915260800190565b3480156200089857600080fd5b5062000431620008aa36600462003fb0565b62001b10565b6040805160a081018252600080825260208201819052918101829052606081018290526080810182905290620008e7838262001b1e565b8252620008f660208262004865565b82519091506a546f6b656e42726964676514620009665760405162461bcd60e51b815260206004820152602360248201527f696e76616c6964205265676973746572436861696e3a2077726f6e67206d6f64604482015262756c6560e81b60648201526084015b60405180910390fd5b62000972838262001b80565b60ff1660208301526200098760018262004865565b9050816020015160ff16600114620009ee5760405162461bcd60e51b815260206004820152602360248201527f696e76616c6964205265676973746572436861696e3a2077726f6e672061637460448201526234b7b760e91b60648201526084016200095d565b620009fa838262001be0565b61ffff16604083015262000a1060028262004865565b905062000a1e838262001be0565b61ffff16606083015262000a3460028262004865565b905062000a42838262001b1e565b608083015262000a5460208262004865565b90508083511462000ab45760405162461bcd60e51b815260206004820152602360248201527f696e76616c6964205265676973746572436861696e3a2077726f6e67206c656e6044820152620cee8d60eb1b60648201526084016200095d565b50919050565b6040805160c081018252600080825260208201819052918101829052606081018290526080810182905260a081018290529062000af8838262001b80565b60ff16825262000b0a60018262004865565b9050816000015160ff1660021462000b595760405162461bcd60e51b8152602060048201526011602482015270696e76616c69642041737365744d65746160781b60448201526064016200095d565b62000b65838262001b1e565b60208084019190915262000b7a908262004865565b905062000b88838262001be0565b61ffff16604083015262000b9e60028262004865565b905062000bac838262001b80565b60ff16606083015262000bc160018262004865565b905062000bcf838262001b1e565b608083015262000be160208262004865565b905062000bef838262001b1e565b60a083015262000c0160208262004865565b90508083511462000ab45760405162461bcd60e51b8152602060048201526011602482015270696e76616c69642041737365744d65746160781b60448201526064016200095d565b60006002600c54141562000ca05760405162461bcd60e51b815260206004820152601f60248201527f5265656e7472616e637947756172643a207265656e7472616e742063616c6c0060448201526064016200095d565b6002600c55600062000cb488888662001c41565b905062000cdc8160000151826020015183604001518989866060015187608001518a620020f1565b6001600c5598975050505050505050565b60006002600c54141562000d445760405162461bcd60e51b815260206004820152601f60248201527f5265656e7472616e637947756172643a207265656e7472616e742063616c6c0060448201526064016200095d565b6002600c55600062000d5889898762001c41565b905062000d818160000151826020015183604001518a8a866060015187608001518b8b6200222f565b6001600c559998505050505050505050565b60008062000da18562002376565b905062000dca8160000151826020015183604001518a8a866060015187608001518b8b6200222f565b979650505050505050565b61ffff821660009081526008602090815260408083208484529091529020546001600160a01b03165b92915050565b600080600062000e148462002650565b92509250925081819062000e3d5760405162461bcd60e51b81526004016200095d91906200466f565b5062000e638361014001516000908152600560205260409020805460ff19166001179055565b600062000e748460e0015162001935565b905062000e8460025461ffff1690565b61ffff16816040015161ffff161462000ed15760405162461bcd60e51b815260206004820152600e60248201526d1ddc9bdb99c818da185a5b881a5960921b60448201526064016200095d565b606081015162000ee1906200287f565b5050505050565b6040805160e081018252600080825260208201819052918101829052606081018290526080810182905260a0810182905260c081018290529062000f2d838262001b80565b60ff16825262000f3f60018262004865565b9050816000015160ff166001148062000f5f5750816000015160ff166003145b62000fa05760405162461bcd60e51b815260206004820152601060248201526f34b73b30b634b2102a3930b739b332b960811b60448201526064016200095d565b62000fac8382620029b6565b60208084019190915262000fc1908262004865565b905062000fcf838262001b1e565b604083015262000fe160208262004865565b905062000fef838262001be0565b61ffff1660608301526200100560028262004865565b905062001013838262001b1e565b60808301526200102560208262004865565b905062001033838262001be0565b61ffff1660a08301526200104960028262004865565b9050620010578382620029b6565b60c08301526200106960208262004865565b90508083511480620010825750816000015160ff166003145b62000ab45760405162461bcd60e51b815260206004820152601060248201526f34b73b30b634b2102a3930b739b332b960811b60448201526064016200095d565b6060620010d38360018462002a0f565b9392505050565b6060620010d38360008462002a0f565b8051602080830151604080850151606080870151608088015160a089015160c08a0151955160f89990991b6001600160f81b031916978901979097526021880195909552604187019290925260f091821b6001600160f01b03199081166061880152606387019490945293901b909116608384015260858301529060a5015b6040516020818303038152906040529050919050565b6000806200118d8462002376565b9050620011b58160000151826020015183604001518989866060015187608001518a620020f1565b9695505050505050565b6000806000620011cf8462002650565b925092509250818190620011f85760405162461bcd60e51b81526004016200095d91906200466f565b506200121e8361014001516000908152600560205260409020805460ff19166001179055565b60006200122f8460e00151620008b0565b90506200123f60025461ffff1690565b61ffff16816040015161ffff1614806200125f5750604081015161ffff16155b620012a05760405162461bcd60e51b815260206004820152601060248201526f1a5b9d985b1a590818da185a5b881a5960821b60448201526064016200095d565b606081015161ffff166000908152600b602052604081205414620013075760405162461bcd60e51b815260206004820152601860248201527f636861696e20616c72656164792072656769737465726564000000000000000060448201526064016200095d565b62000ee18160600151826080015161ffff9091166000908152600b6020526040902055565b8051602080830151604080850151606080870151608088015160a0890151945160f898891b6001600160f81b031990811698820198909852602181019690965260f09390931b6001600160f01b031916604186015290951b90931660438301526044820192909252606481019190915260840162001169565b60408051600481526024810182526020810180516001600160e01b031663313ce56760e01b179052905160009182916001600160a01b03861691620013ea916200458c565b600060405180830381855afa9150503d806000811462001427576040519150601f19603f3d011682016040523d82523d6000602084013e6200142c565b606091505b5060408051600481526024810182526020810180516001600160e01b03166395d89b4160e01b1790529051919350600092506001600160a01b038716916200147591906200458c565b600060405180830381855afa9150503d8060008114620014b2576040519150601f19603f3d011682016040523d82523d6000602084013e620014b7565b606091505b5060408051600481526024810182526020810180516001600160e01b03166306fdde0360e01b1790529051919350600092506001600160a01b038816916200150091906200458c565b600060405180830381855afa9150503d80600081146200153d576040519150601f19603f3d011682016040523d82523d6000602084013e62001542565b606091505b509150506000838060200190518101906200155e91906200453f565b905060008380602001905181019062001578919062004037565b905060008380602001905181019062001592919062004037565b9050600080602084015191506020830151905060006040518060c00160405280600260ff1681526020018d6001600160a01b031660001b8152602001620015dc60025461ffff1690565b61ffff1681526020018760ff168152602001848152602001838152509050600062001607826200132c565b90506200161c6000546001600160a01b031690565b6001600160a01b031663b19a437e348e84600f6040518563ffffffff1660e01b81526004016200164f939291906200475d565b6020604051808303818588803b1580156200166957600080fd5b505af11580156200167e573d6000803e3d6000fd5b50505050506040513d601f19601f82011682018060405250810190620016a5919062004522565b9d9c50505050505050505050505050565b620016c48160003362002a0f565b5050565b600080600080620016e16000546001600160a01b031690565b6001600160a01b031663c0fd8bde866040518263ffffffff1660e01b81526004016200170e91906200466f565b60006040518083038186803b1580156200172757600080fd5b505afa1580156200173c573d6000803e3d6000fd5b505050506040513d6000823e601f3d908101601f191682016040526200176691908101906200427e565b9250925092508181906200178f5760405162461bcd60e51b81526004016200095d91906200466f565b506200179b836200317f565b620017ba5760405162461bcd60e51b81526004016200095d9062004734565b6000620017cb8460e0015162000aba565b9050620011b5818560a00151620031bc565b6060816000015182602001518360400151846060015185608001518660a001518760c001518860e0015160405160200162001169989796959493929190620045dd565b600080600080620018396000546001600160a01b031690565b6001600160a01b031663c0fd8bde866040518263ffffffff1660e01b81526004016200186691906200466f565b60006040518083038186803b1580156200187f57600080fd5b505afa15801562001894573d6000803e3d6000fd5b505050506040513d6000823e601f3d908101601f19168201604052620018be91908101906200427e565b925092509250818190620018e75760405162461bcd60e51b81526004016200095d91906200466f565b50620018f3836200317f565b620019125760405162461bcd60e51b81526004016200095d9062004734565b6000620019238460e0015162000aba565b9050620011b5818560a001516200346d565b60408051608081018252600080825260208201819052918101829052606081018290529062001965838262001b1e565b82526200197460208262004865565b82519091506a546f6b656e42726964676514620019e25760405162461bcd60e51b815260206004820152602560248201527f696e76616c69642055706772616465436f6e74726163743a2077726f6e67206d6044820152646f64756c6560d81b60648201526084016200095d565b620019ee838262001b80565b60ff16602083015262001a0360018262004865565b9050816020015160ff1660021462001a6c5760405162461bcd60e51b815260206004820152602560248201527f696e76616c69642055706772616465436f6e74726163743a2077726f6e67206160448201526431ba34b7b760d91b60648201526084016200095d565b62001a78838262001be0565b61ffff16604083015262001a8e60028262004865565b905062001a9c838262001b1e565b606083015262001aae60208262004865565b90508083511462000ab45760405162461bcd60e51b815260206004820152602560248201527f696e76616c69642055706772616465436f6e74726163743a2077726f6e67206c6044820152640cadccee8d60db1b60648201526084016200095d565b620016c48160013362002a0f565b600062001b2d82602062004865565b8351101562001b775760405162461bcd60e51b8152602060048201526015602482015274746f427974657333325f6f75744f66426f756e647360581b60448201526064016200095d565b50016020015190565b600062001b8f82600162004865565b8351101562001bd75760405162461bcd60e51b8152602060048201526013602482015272746f55696e74385f6f75744f66426f756e647360681b60448201526064016200095d565b50016001015190565b600062001bef82600262004865565b8351101562001c385760405162461bcd60e51b8152602060048201526014602482015273746f55696e7431365f6f75744f66426f756e647360601b60448201526064016200095d565b50016002015190565b6040805160a0810182526000808252602082018190529181018290526060810182905260808101919091526001600160a01b038416600090815260096020526040812054819060ff161562001d8457856001600160a01b0316639a8a05926040518163ffffffff1660e01b815260040160206040518083038186803b15801562001cca57600080fd5b505afa15801562001cdf573d6000803e3d6000fd5b505050506040513d601f19601f8201168201806040525081019062001d0591906200440c565b9150856001600160a01b0316633d6c043b6040518163ffffffff1660e01b815260040160206040518083038186803b15801562001d4157600080fd5b505afa15801562001d56573d6000803e3d6000fd5b505050506040513d601f19601f8201168201806040525081019062001d7c919062003f97565b905062001d98565b505060025461ffff166001600160a01b0385165b60408051600481526024810182526020810180516001600160e01b031663313ce56760e01b17905290516000916001600160a01b0389169162001ddc91906200458c565b600060405180830381855afa9150503d806000811462001e19576040519150601f19603f3d011682016040523d82523d6000602084013e62001e1e565b606091505b5091505060008180602001905181019062001e3a91906200453f565b905062001e5362001e4c888362003568565b82620035a7565b965062001e6360025461ffff1690565b61ffff168461ffff1614156200200357604080513060248083019190915282518083039091018152604490910182526020810180516001600160e01b03166370a0823160e01b17905290516000916001600160a01b038b169162001ec891906200458c565b600060405180830381855afa9150503d806000811462001f05576040519150601f19603f3d011682016040523d82523d6000602084013e62001f0a565b606091505b5091505060008180602001905181019062001f26919062003f97565b905062001f368a33308c620035dc565b604080513060248083019190915282518083039091018152604490910182526020810180516001600160e01b03166370a0823160e01b17905290516000916001600160a01b038d169162001f8b91906200458c565b600060405180830381855afa9150503d806000811462001fc8576040519150601f19603f3d011682016040523d82523d6000602084013e62001fcd565b606091505b5091505060008180602001905181019062001fe9919062003f97565b905062001ff78382620049cb565b9a505050505062002074565b620020118833308a620035dc565b604051632770a7eb60e21b8152306004820152602481018890526001600160a01b03891690639dc29fac90604401600060405180830381600087803b1580156200205a57600080fd5b505af11580156200206f573d6000803e3d6000fd5b505050505b600062002082888362003568565b9050600062002092888462003568565b9050620020a260025461ffff1690565b61ffff168661ffff161415620020be57620020be8a836200364f565b6040805160a08101825261ffff909716875260208701959095529385015250506060820152346080820152949350505050565b6000868411156200213a5760405162461bcd60e51b815260206004820152601260248201527119995948195e18d959591cc8185b5bdd5b9d60721b60448201526064016200095d565b6040805160e081018252600181526020810189905290810189905261ffff808b16606083015260808201879052871660a082015260c0810185905260006200218282620010ea565b9050620021976000546001600160a01b031690565b6001600160a01b031663b19a437e868684600f6040518563ffffffff1660e01b8152600401620021ca939291906200475d565b6020604051808303818588803b158015620021e457600080fd5b505af1158015620021f9573d6000803e3d6000fd5b50505050506040513d601f19601f8201168201806040525081019062002220919062004522565b9b9a5050505050505050505050565b600087851115620022785760405162461bcd60e51b815260206004820152601260248201527119995948195e18d959591cc8185b5bdd5b9d60721b60448201526064016200095d565b604080516101008101825260038152602081018a90529081018a905261ffff808c16606083015260808201889052881660a082015260c0810186905260e081018390526000620022c882620017dd565b9050620022dd6000546001600160a01b031690565b6001600160a01b031663b19a437e878784600f6040518563ffffffff1660e01b815260040162002310939291906200475d565b6020604051808303818588803b1580156200232a57600080fd5b505af11580156200233f573d6000803e3d6000fd5b50505050506040513d601f19601f8201168201806040525081019062002366919062004522565b9c9b505050505050505050505050565b6040805160a081018252600080825260208201819052918101829052606081018290526080810191909152600080546001600160a01b03166001600160a01b0316631a90a2196040518163ffffffff1660e01b815260040160206040518083038186803b158015620023e757600080fd5b505afa158015620023fc573d6000803e3d6000fd5b505050506040513d601f19601f8201168201806040525081019062002422919062003f97565b9050348110620024805760405162461bcd60e51b815260206004820152602260248201527f76616c756520697320736d616c6c6572207468616e20776f726d686f6c652066604482015261656560f01b60648201526084016200095d565b60006200248e8234620049cb565b905080841115620024f75760405162461bcd60e51b815260206004820152602c60248201527f66656520697320626967676572207468616e20616d6f756e74206d696e75732060448201526b776f726d686f6c652066656560a01b60648201526084016200095d565b60006200250682601262003568565b905060006200251786601262003568565b9050600062002528836012620035a7565b620025349085620049cb565b905080156200256d57604051339082156108fc029083906000818181858888f193505050501580156200256b573d6000803e3d6000fd5b505b6004546001600160a01b031663d0e30db06200258a8387620049cb565b6040518263ffffffff1660e01b81526004016000604051808303818588803b158015620025b657600080fd5b505af1158015620025cb573d6000803e3d6000fd5b5050505050620025ee620025e76004546001600160a01b031690565b846200364f565b6040518060a001604052806200260760025461ffff1690565b61ffff168152602001620026236004546001600160a01b031690565b6001600160a01b031660001b81526020018481526020018381526020018681525095505050505050919050565b604080516101608101825260008082526020820181905291810182905260608082018390526080820183905260a0820183905260c0820183905260e082018190526101008201839052610120820152610140810191909152600060606000806000620026c46000546001600160a01b031690565b6001600160a01b031663c0fd8bde886040518263ffffffff1660e01b8152600401620026f191906200466f565b60006040518083038186803b1580156200270a57600080fd5b505afa1580156200271f573d6000803e3d6000fd5b505050506040513d6000823e601f3d908101601f191682016040526200274991908101906200427e565b9250925092508162002762579194509250905062002878565b60025462010000900461ffff1661ffff16836060015161ffff1614620027c05750506040805180820190915260168152753bb937b7339033b7bb32b93730b731b29031b430b4b760511b602082015290935060009250905062002878565b6003548360800151146200281357505060408051808201909152601981527f77726f6e6720676f7665726e616e636520636f6e747261637400000000000000602082015290935060009250905062002878565b61014083015160009081526005602052604090205460ff16156200285d578260006040518060600160405280602281526020016200544f6022913995509550955050505062002878565b50506040805160208101909152600081529093506001925090505b9193909250565b6000620028b37f360894a13ba1a3210667c828492db98dca3e2076cc3735a920a3ca505d382bbc546001600160a01b031690565b9050620028c0826200371c565b60408051600481526024810182526020810180516001600160e01b031663204a7f0760e21b179052905160009182916001600160a01b0386169162002905916200458c565b600060405180830381855af49150503d806000811462002942576040519150601f19603f3d011682016040523d82523d6000602084013e62002947565b606091505b50915091508181906200296f5760405162461bcd60e51b81526004016200095d91906200466f565b50836001600160a01b0316836001600160a01b03167f2e4cc16c100f0b55e2df82ab0b1a7e294aa9cbd01b48fbaf622683fbc0507a4960405160405180910390a350505050565b6000620029c582602062004865565b8351101562001b775760405162461bcd60e51b8152602060048201526015602482015274746f55696e743235365f6f75744f66426f756e647360581b60448201526064016200095d565b6060600080600062002a296000546001600160a01b031690565b6001600160a01b031663c0fd8bde886040518263ffffffff1660e01b815260040162002a5691906200466f565b60006040518083038186803b15801562002a6f57600080fd5b505afa15801562002a84573d6000803e3d6000fd5b505050506040513d6000823e601f3d908101601f1916820160405262002aae91908101906200427e565b92509250925081819062002ad75760405162461bcd60e51b81526004016200095d91906200466f565b5062002ae3836200317f565b62002b025760405162461bcd60e51b81526004016200095d9062004734565b600062002b138460e0015162000ee8565b608081015181519192509060ff166003141562002b7557336001600160a01b0382161462002b755760405162461bcd60e51b815260206004820152600e60248201526d34b73b30b634b21039b2b73232b960911b60448201526064016200095d565b61014085015160009081526006602052604090205460ff161562002bdc5760405162461bcd60e51b815260206004820152601a60248201527f7472616e7366657220616c726561647920636f6d706c6574656400000000000060448201526064016200095d565b62002c018561014001516000908152600660205260409020805460ff19166001179055565b60025461ffff1661ffff168260a0015161ffff161462002c5b5760405162461bcd60e51b815260206004820152601460248201527334b73b30b634b2103a30b933b2ba1031b430b4b760611b60448201526064016200095d565b600062002c6b60025461ffff1690565b61ffff16836060015161ffff16141562002c9d57506040820151602083015162002c979082906200375e565b62002d1e565b600062002cb38460600151856040015162000dd5565b90506001600160a01b03811662002d1b5760405162461bcd60e51b815260206004820152602560248201527f6e6f207772617070657220666f72207468697320746f6b656e2063726561746560448201526419081e595d60da1b60648201526084016200095d565b90505b88158062002d3957506004546001600160a01b038281169116145b62002d935760405162461bcd60e51b815260206004820152602360248201527f696e76616c696420746f6b656e2c2063616e206f6e6c7920756e77726170205760448201526208aa8960eb1b60648201526084016200095d565b60408051600481526024810182526020810180516001600160e01b031663313ce56760e01b17905290516000916001600160a01b0384169162002dd791906200458c565b600060405180830381855afa9150503d806000811462002e14576040519150601f19603f3d011682016040523d82523d6000602084013e62002e19565b606091505b5091505060008180602001905181019062002e3591906200453f565b9050600062002e49866020015183620035a7565b9050600062002e5d8760c0015184620035a7565b905060008111801562002e8257508b6001600160a01b0316866001600160a01b031614155b156200301f578181111562002ee55760405162461bcd60e51b815260206004820152602260248201527f66656520686967686572207468616e207472616e7366657272656420616d6f756044820152611b9d60f21b60648201526084016200095d565b8c1562002f885760048054604051632e1a7d4d60e01b81529182018390526001600160a01b031690632e1a7d4d90602401600060405180830381600087803b15801562002f3157600080fd5b505af115801562002f46573d6000803e3d6000fd5b50506040516001600160a01b038f16925083156108fc02915083906000818181858888f1935050505015801562002f81573d6000803e3d6000fd5b5062003023565b60025461ffff1661ffff16876060015161ffff16146200300c576040516340c10f1960e01b81526001600160a01b038d81166004830152602482018390528616906340c10f1990604401600060405180830381600087803b15801562002fed57600080fd5b505af115801562003002573d6000803e3d6000fd5b5050505062003023565b62003019858d8362003790565b62003023565b5060005b6000620030318284620049cb565b90508d15620030d65760048054604051632e1a7d4d60e01b81529182018390526001600160a01b031690632e1a7d4d90602401600060405180830381600087803b1580156200307f57600080fd5b505af115801562003094573d6000803e3d6000fd5b50506040516001600160a01b038a16925083156108fc02915083906000818181858888f19350505050158015620030cf573d6000803e3d6000fd5b5062003167565b60025461ffff1661ffff16886060015161ffff16146200315a576040516340c10f1960e01b81526001600160a01b038881166004830152602482018390528716906340c10f1990604401600060405180830381600087803b1580156200313b57600080fd5b505af115801562003150573d6000803e3d6000fd5b5050505062003167565b6200316786888362003790565b50505060e0909701519b9a5050505050505050505050565b60008160800151620031a5836060015161ffff166000908152600b602052604090205490565b1415620031b457506001919050565b506000919050565b6000620031cc60025461ffff1690565b61ffff16836040015161ffff1614156200323a5760405162461bcd60e51b815260206004820152602860248201527f63616e206f6e6c79207772617020746f6b656e732066726f6d20666f726569676044820152676e20636861696e7360c01b60648201526084016200095d565b60006001600160a01b0316620032598460400151856020015162000dd5565b6001600160a01b031614620032b15760405162461bcd60e51b815260206004820152601c60248201527f7772617070656420617373657420616c7265616479206578697374730000000060448201526064016200095d565b600063c71f461560e01b620032ca8560a00151620037c2565b620032d98660800151620037c2565b8660600151863089604001518a60200151604051602401620033029796959493929190620046c7565b60408051601f19818403018152918152602080830180516001600160e01b03166001600160e01b031990951694909417909352519092506000916200334c91309185910162004649565b6040516020818303038152906040529050600060405180602001620033719062003bf5565b601f1982820381018352601f9091011660408190526200339791908490602001620045aa565b6040516020818303038152906040529050600086604001518760200151604051602001620033de92919060f09290921b6001600160f01b0319168252600282015260220190565b604051602081830303815290604052805190602001209050808251602084016000f59450843b6200340e57600080fd5b6040808801516020808a015161ffff90921660009081526008825283812092815291815282822080546001600160a01b0319166001600160a01b038a1690811790915582526009905220805460ff191660011790555050505092915050565b600080620034848460400151856020015162000dd5565b90506001600160a01b038116620034de5760405162461bcd60e51b815260206004820152601d60248201527f7772617070656420617373657420646f6573206e6f742065786973747300000060448201526064016200095d565b806001600160a01b031663a18cd7c6620034fc8660a00151620037c2565b6200350b8760800151620037c2565b866040518463ffffffff1660e01b81526004016200352c9392919062004684565b600060405180830381600087803b1580156200354757600080fd5b505af11580156200355c573d6000803e3d6000fd5b50929695505050505050565b600060088260ff161115620035a05762003584600883620049e5565b6200359190600a620048ea565b6200359d908462004880565b92505b5090919050565b600060088260ff161115620035a057620035c3600883620049e5565b620035d090600a620048ea565b6200359d9084620049a9565b6040516001600160a01b0380851660248301528316604482015260648101829052620036499085906323b872dd60e01b906084015b60408051601f198184030181529190526020810180516001600160e01b03166001600160e01b031990931692909217909152620038fd565b50505050565b6001600160a01b0382166000908152600a60205260409020546001600160401b036200367c838362004865565b1115620036ea5760405162461bcd60e51b815260206004820152603560248201527f7472616e736665722065786365656473206d6178206f75747374616e64696e6760448201527408189c9a5919d959081d1bdad95b88185b5bdd5b9d605a1b60648201526084016200095d565b6200371783620036fb848462004865565b6001600160a01b039091166000908152600a6020526040902055565b505050565b6200372781620039d6565b6040516001600160a01b038216907fbc7cd75a20ee27fd9adebab32041f755214dbc6bffa90cc0225b39da2e5c2d3b90600090a250565b620016c4828262003784856001600160a01b03166000908152600a602052604090205490565b620036fb9190620049cb565b6040516001600160a01b0383166024820152604481018290526200371790849063a9059cbb60e01b9060640162003611565b606060005b602081108015620038055750828160208110620037f457634e487b7160e01b600052603260045260246000fd5b1a60f81b6001600160f81b03191615155b15620038205780620038178162004a3a565b915050620037c7565b6000816001600160401b038111156200384957634e487b7160e01b600052604160045260246000fd5b6040519080825280601f01601f19166020018201604052801562003874576020820181803683370190505b50905060005b82811015620038f557848160208110620038a457634e487b7160e01b600052603260045260246000fd5b1a60f81b828281518110620038c957634e487b7160e01b600052603260045260246000fd5b60200101906001600160f81b031916908160001a90535080620038ec8162004a3a565b9150506200387a565b509392505050565b600062003954826040518060400160405280602081526020017f5361666545524332303a206c6f772d6c6576656c2063616c6c206661696c6564815250856001600160a01b031662003a7d9092919063ffffffff16565b80519091501562003717578080602001905181019062003975919062003f61565b620037175760405162461bcd60e51b815260206004820152602a60248201527f5361666545524332303a204552433230206f7065726174696f6e20646964206e6044820152691bdd081cdd58d8d9595960b21b60648201526084016200095d565b803b62003a3c5760405162461bcd60e51b815260206004820152602d60248201527f455243313936373a206e657720696d706c656d656e746174696f6e206973206e60448201526c1bdd08184818dbdb9d1c9858dd609a1b60648201526084016200095d565b7f360894a13ba1a3210667c828492db98dca3e2076cc3735a920a3ca505d382bbc80546001600160a01b0319166001600160a01b0392909216919091179055565b606062003a8e848460008562003a96565b949350505050565b60608247101562003af95760405162461bcd60e51b815260206004820152602660248201527f416464726573733a20696e73756666696369656e742062616c616e636520666f6044820152651c8818d85b1b60d21b60648201526084016200095d565b843b62003b495760405162461bcd60e51b815260206004820152601d60248201527f416464726573733a2063616c6c20746f206e6f6e2d636f6e747261637400000060448201526064016200095d565b600080866001600160a01b0316858760405162003b6791906200458c565b60006040518083038185875af1925050503d806000811462003ba6576040519150601f19603f3d011682016040523d82523d6000602084013e62003bab565b606091505b509150915062000dca8282866060831562003bc8575081620010d3565b82511562003bd95782518084602001fd5b8160405162461bcd60e51b81526004016200095d91906200466f565b6109938062004abc83390190565b80356001600160a01b038116811462003c1b57600080fd5b919050565b600082601f83011262003c31578081fd5b815160206001600160401b0382111562003c4f5762003c4f62004a6e565b62003c5f818360051b0162004808565b80838252828201915082860187848660071b890101111562003c7f578586fd5b855b8581101562003cef57608080838b03121562003c9b578788fd5b62003ca562004791565b83518152868401518782015260408085015162003cc28162004aab565b9082015260608481015162003cd78162004aab565b90820152855293850193919091019060010162003c81565b5090979650505050505050565b8051801515811462003c1b57600080fd5b600082601f83011262003d1e578081fd5b813562003d3562003d2f826200483b565b62004808565b81815284602083860101111562003d4a578283fd5b816020850160208301379081016020019190915292915050565b600082601f83011262003d75578081fd5b815162003d8662003d2f826200483b565b81815284602083860101111562003d9b578283fd5b62003a8e82602083016020870162004a0b565b803562003c1b8162004a84565b805162003c1b8162004a84565b805162003c1b8162004a98565b80516001600160401b038116811462003c1b57600080fd5b803562003c1b8162004aab565b805162003c1b8162004aab565b60006020828403121562003e19578081fd5b620010d38262003c03565b60008060008060008060c0878903121562003e3d578182fd5b62003e488762003c03565b955060208701359450604087013562003e618162004a84565b9350606087013592506080870135915060a087013562003e818162004a98565b809150509295509295509295565b600080600080600080600060e0888a03121562003eaa578485fd5b62003eb58862003c03565b965060208801359550604088013562003ece8162004a84565b9450606088013593506080880135925060a088013562003eee8162004a98565b915060c08801356001600160401b0381111562003f09578182fd5b62003f178a828b0162003d0d565b91505092959891949750929550565b6000806040838503121562003f39578182fd5b62003f448362003c03565b9150602083013562003f568162004a98565b809150509250929050565b60006020828403121562003f73578081fd5b620010d38262003cfc565b60006020828403121562003f90578081fd5b5035919050565b60006020828403121562003fa9578081fd5b5051919050565b60006020828403121562003fc2578081fd5b81356001600160401b0381111562003fd8578182fd5b62003a8e8482850162003d0d565b6000806040838503121562003ff9578182fd5b82356001600160401b038111156200400f578283fd5b6200401d8582860162003d0d565b9250506200402e6020840162003c03565b90509250929050565b60006020828403121562004049578081fd5b81516001600160401b038111156200405f578182fd5b62003a8e8482850162003d64565b600060c082840312156200407f578081fd5b60405160c081018181106001600160401b0382111715620040a457620040a462004a6e565b6040528235620040b48162004aab565b8152602083810135908201526040830135620040d08162004a84565b60408201526060830135620040e58162004aab565b60608201526080838101359082015260a0928301359281019290925250919050565b60006020828403121562004119578081fd5b81356001600160401b038082111562004130578283fd5b90830190610100828603121562004145578283fd5b6200414f620047bc565b6200415a8362003ded565b815260208301356020820152604083013560408201526200417e6060840162003dae565b6060820152608083013560808201526200419b60a0840162003dae565b60a082015260c083013560c082015260e083013582811115620041bc578485fd5b620041ca8782860162003d0d565b60e08301525095945050505050565b600060e08284031215620041eb578081fd5b60405160e081018181106001600160401b038211171562004210576200421062004a6e565b6040528235620042208162004aab565b8082525060208301356020820152604083013560408201526060830135620042488162004a84565b6060820152608083810135908201526200426560a0840162003dae565b60a082015260c083013560c08201528091505092915050565b60008060006060848603121562004293578081fd5b83516001600160401b0380821115620042aa578283fd5b908501906101608288031215620042bf578283fd5b620042c9620047e2565b620042d48362003dfa565b8152620042e46020840162003dc8565b6020820152620042f76040840162003dc8565b60408201526200430a6060840162003dbb565b6060820152608083015160808201526200432760a0840162003dd5565b60a08201526200433a60c0840162003dfa565b60c082015260e08301518281111562004351578485fd5b6200435f8982860162003d64565b60e0830152506101006200437581850162003dc8565b9082015261012083810151838111156200438d578586fd5b6200439b8a82870162003c20565b918301919091525061014083810151908201529450620043be6020870162003cfc565b93506040860151915080821115620043d4578283fd5b50620043e38682870162003d64565b9150509250925092565b600060208284031215620043ff578081fd5b8135620010d38162004a84565b6000602082840312156200441e578081fd5b8151620010d38162004a84565b600080604083850312156200443e578182fd5b82356200444b8162004a84565b946020939093013593505050565b600080600080608085870312156200446f578182fd5b84356200447c8162004a84565b9350602085013592506040850135915060608501356200449c8162004a98565b939692955090935050565b600080600080600060a08688031215620044bf578283fd5b8535620044cc8162004a84565b945060208601359350604086013592506060860135620044ec8162004a98565b915060808601356001600160401b0381111562004507578182fd5b620045158882890162003d0d565b9150509295509295909350565b60006020828403121562004534578081fd5b620010d38262003dd5565b60006020828403121562004551578081fd5b8151620010d38162004aab565b600081518084526200457881602086016020860162004a0b565b601f01601f19169290920160200192915050565b60008251620045a081846020870162004a0b565b9190910192915050565b60008351620045be81846020880162004a0b565b835190830190620045d481836020880162004a0b565b01949350505050565b60ff60f81b8960f81b168152876001820152866021820152600061ffff60f01b808860f01b166041840152866043840152808660f01b1660638401525083606583015282516200463581608585016020870162004a0b565b919091016085019998505050505050505050565b6001600160a01b038316815260406020820181905260009062003a8e908301846200455e565b602081526000620010d360208301846200455e565b6060815260006200469960608301866200455e565b8281036020840152620046ad81866200455e565b9150506001600160401b0383166040830152949350505050565b60e081526000620046dc60e083018a6200455e565b8281036020840152620046f0818a6200455e565b60ff98909816604084015250506001600160401b039490941660608501526001600160a01b0392909216608084015261ffff1660a083015260c09091015292915050565b6020808252600f908201526e34b73b30b634b21032b6b4ba3a32b960891b604082015260600190565b63ffffffff841681526060602082015260006200477e60608301856200455e565b905060ff83166040830152949350505050565b604051608081016001600160401b0381118282101715620047b657620047b662004a6e565b60405290565b60405161010081016001600160401b0381118282101715620047b657620047b662004a6e565b60405161016081016001600160401b0381118282101715620047b657620047b662004a6e565b604051601f8201601f191681016001600160401b038111828210171562004833576200483362004a6e565b604052919050565b60006001600160401b0382111562004857576200485762004a6e565b50601f01601f191660200190565b600082198211156200487b576200487b62004a58565b500190565b6000826200489c57634e487b7160e01b81526012600452602481fd5b500490565b600181815b80851115620048e2578160001904821115620048c657620048c662004a58565b80851615620048d457918102915b93841c9390800290620048a6565b509250929050565b6000620010d360ff841683600082620049065750600162000dfe565b81620049155750600062000dfe565b81600181146200492e5760028114620049395762004959565b600191505062000dfe565b60ff8411156200494d576200494d62004a58565b50506001821b62000dfe565b5060208310610133831016604e8410600b84101617156200497e575081810a62000dfe565b6200498a8383620048a1565b8060001904821115620049a157620049a162004a58565b029392505050565b6000816000190483118215151615620049c657620049c662004a58565b500290565b600082821015620049e057620049e062004a58565b500390565b600060ff821660ff84168082101562004a025762004a0262004a58565b90039392505050565b60005b8381101562004a2857818101518382015260200162004a0e565b83811115620036495750506000910152565b600060001982141562004a515762004a5162004a58565b5060010190565b634e487b7160e01b600052601160045260246000fd5b634e487b7160e01b600052604160045260246000fd5b61ffff8116811462004a9557600080fd5b50565b63ffffffff8116811462004a9557600080fd5b60ff8116811462004a9557600080fdfe608060405234801561001057600080fd5b5060405161099338038061099383398101604081905261002f9161048e565b818161005c60017fa3f0ad74e5423aebfd80d3ef4346578335a9a72aeaee59ff6cb3582b35133d51610599565b60008051602061094c8339815191521461008657634e487b7160e01b600052600160045260246000fd5b6100928282600061009b565b505050506105fe565b6100a483610175565b6040516001600160a01b038416907f1cf3b03a6cf19fa2baba4df148e9dcabedea7f8a5c07840e207e5c089be95d3e90600090a26000825111806100e55750805b156101705761016e836001600160a01b0316635c60da1b6040518163ffffffff1660e01b815260040160206040518083038186803b15801561012657600080fd5b505afa15801561013a573d6000803e3d6000fd5b505050506040513d601f19601f8201168201806040525081019061015e9190610474565b8361031560201b6100291760201c565b505b505050565b6101888161034160201b6100551760201c565b6101e75760405162461bcd60e51b815260206004820152602560248201527f455243313936373a206e657720626561636f6e206973206e6f74206120636f6e6044820152641d1c9858dd60da1b60648201526084015b60405180910390fd5b61026a816001600160a01b0316635c60da1b6040518163ffffffff1660e01b815260040160206040518083038186803b15801561022357600080fd5b505afa158015610237573d6000803e3d6000fd5b505050506040513d601f19601f8201168201806040525081019061025b9190610474565b61034160201b6100551760201c565b6102cf5760405162461bcd60e51b815260206004820152603060248201527f455243313936373a20626561636f6e20696d706c656d656e746174696f6e206960448201526f1cc81b9bdd08184818dbdb9d1c9858dd60821b60648201526084016101de565b806102f460008051602061094c83398151915260001b61034760201b61005b1760201c565b80546001600160a01b0319166001600160a01b039290921691909117905550565b606061033a838360405180606001604052806027815260200161096c6027913961034a565b9392505050565b3b151590565b90565b6060833b6103a95760405162461bcd60e51b815260206004820152602660248201527f416464726573733a2064656c65676174652063616c6c20746f206e6f6e2d636f6044820152651b9d1c9858dd60d21b60648201526084016101de565b600080856001600160a01b0316856040516103c4919061054a565b600060405180830381855af49150503d80600081146103ff576040519150601f19603f3d011682016040523d82523d6000602084013e610404565b606091505b50909250905061041582828661041f565b9695505050505050565b6060831561042e57508161033a565b82511561043e5782518084602001fd5b8160405162461bcd60e51b81526004016101de9190610566565b80516001600160a01b038116811461046f57600080fd5b919050565b600060208284031215610485578081fd5b61033a82610458565b600080604083850312156104a0578081fd5b6104a983610458565b60208401519092506001600160401b03808211156104c5578283fd5b818501915085601f8301126104d8578283fd5b8151818111156104ea576104ea6105e8565b604051601f8201601f19908116603f01168101908382118183101715610512576105126105e8565b8160405282815288602084870101111561052a578586fd5b61053b8360208301602088016105bc565b80955050505050509250929050565b6000825161055c8184602087016105bc565b9190910192915050565b60208152600082518060208401526105858160408501602087016105bc565b601f01601f19169190910160400192915050565b6000828210156105b757634e487b7160e01b81526011600452602481fd5b500390565b60005b838110156105d75781810151838201526020016105bf565b8381111561016e5750506000910152565b634e487b7160e01b600052604160045260246000fd5b61033f8061060d6000396000f3fe60806040523661001357610011610017565b005b6100115b61002761002261005e565b610106565b565b606061004e83836040518060600160405280602781526020016102e36027913961012a565b9392505050565b3b151590565b90565b60006100917fa3f0ad74e5423aebfd80d3ef4346578335a9a72aeaee59ff6cb3582b35133d50546001600160a01b031690565b6001600160a01b0316635c60da1b6040518163ffffffff1660e01b815260040160206040518083038186803b1580156100c957600080fd5b505afa1580156100dd573d6000803e3d6000fd5b505050506040513d601f19601f82011682018060405250810190610101919061023c565b905090565b3660008037600080366000845af43d6000803e808015610125573d6000f35b3d6000fd5b6060833b61018e5760405162461bcd60e51b815260206004820152602660248201527f416464726573733a2064656c65676174652063616c6c20746f206e6f6e2d636f6044820152651b9d1c9858dd60d21b60648201526084015b60405180910390fd5b600080856001600160a01b0316856040516101a99190610263565b600060405180830381855af49150503d80600081146101e4576040519150601f19603f3d011682016040523d82523d6000602084013e6101e9565b606091505b50915091506101f9828286610203565b9695505050505050565b6060831561021257508161004e565b8251156102225782518084602001fd5b8160405162461bcd60e51b8152600401610185919061027f565b60006020828403121561024d578081fd5b81516001600160a01b038116811461004e578182fd5b600082516102758184602087016102b2565b9190910192915050565b602081526000825180602084015261029e8160408501602087016102b2565b601f01601f19169190910160400192915050565b60005b838110156102cd5781810151838201526020016102b5565b838111156102dc576000848401525b5050505056fe416464726573733a206c6f772d6c6576656c2064656c65676174652063616c6c206661696c6564a26469706673582212203e23ac4f79a95247999f8e0df94ea5bd5e38561ccfd051b0ea50ba9aea59b8f164736f6c63430008040033a3f0ad74e5423aebfd80d3ef4346578335a9a72aeaee59ff6cb3582b35133d50416464726573733a206c6f772d6c6576656c2064656c65676174652063616c6c206661696c6564676f7665726e616e636520616374696f6e20616c726561647920636f6e73756d6564a264697066735822122036acafaad024fc7f9968558524ba129e71cdbdcfc2c604638d655b495a578cfd64736f6c63430008040033",
  "immutableReferences": {},
  "source": "// contracts/Bridge.sol\n// SPDX-License-Identifier: Apache 2\n\npragma solidity ^0.8.0;\n\nimport \"@openzeppelin/contracts/security/ReentrancyGuard.sol\";\nimport \"@openzeppelin/contracts/token/ERC20/IERC20.sol\";\nimport \"@openzeppelin/contracts/token/ERC20/utils/SafeERC20.sol\";\n\nimport \"../libraries/external/BytesLib.sol\";\n\nimport \"./BridgeGetters.sol\";\nimport \"./BridgeSetters.sol\";\nimport \"./BridgeStructs.sol\";\nimport \"./BridgeGovernance.sol\";\n\nimport \"./token/Token.sol\";\nimport \"./token/TokenImplementation.sol\";\n\ncontract Bridge is BridgeGovernance, ReentrancyGuard {\n    using BytesLib for bytes;\n\n    // Produce a AssetMeta message for a given token\n    function attestToken(address tokenAddress, uint32 nonce) public payable returns (uint64 sequence){\n        // decimals, symbol & token are not part of the core ERC20 token standard, so we need to support contracts that dont implement them\n        (,bytes memory queriedDecimals) = tokenAddress.staticcall(abi.encodeWithSignature(\"decimals()\"));\n        (,bytes memory queriedSymbol) = tokenAddress.staticcall(abi.encodeWithSignature(\"symbol()\"));\n        (,bytes memory queriedName) = tokenAddress.staticcall(abi.encodeWithSignature(\"name()\"));\n\n        uint8 decimals = abi.decode(queriedDecimals, (uint8));\n\n        string memory symbolString = abi.decode(queriedSymbol, (string));\n        string memory nameString = abi.decode(queriedName, (string));\n\n        bytes32 symbol;\n        bytes32 name;\n        assembly {\n            // first 32 bytes hold string length\n            symbol := mload(add(symbolString, 32))\n            name := mload(add(nameString, 32))\n        }\n\n        BridgeStructs.AssetMeta memory meta = BridgeStructs.AssetMeta({\n        payloadID : 2,\n        // Address of the token. Left-zero-padded if shorter than 32 bytes\n        tokenAddress : bytes32(uint256(uint160(tokenAddress))),\n        // Chain ID of the token\n        tokenChain : chainId(),\n        // Number of decimals of the token (big-endian uint8)\n        decimals : decimals,\n        // Symbol of the token (UTF-8)\n        symbol : symbol,\n        // Name of the token (UTF-8)\n        name : name\n        });\n\n        bytes memory encoded = encodeAssetMeta(meta);\n\n        sequence = wormhole().publishMessage{\n            value : msg.value\n        }(nonce, encoded, 15);\n    }\n\n    function wrapAndTransferETH(uint16 recipientChain, bytes32 recipient, uint256 arbiterFee, uint32 nonce) public payable returns (uint64 sequence) {\n        BridgeStructs.TransferResult memory transferResult = _wrapAndTransferETH(arbiterFee);\n        sequence = logTransfer(transferResult.tokenChain, transferResult.tokenAddress, transferResult.normalizedAmount, recipientChain, recipient, transferResult.normalizedArbiterFee, transferResult.wormholeFee, nonce);\n    }\n\n    function wrapAndTransferETHWithPayload(uint16 recipientChain, bytes32 recipient, uint256 arbiterFee, uint32 nonce, bytes memory payload) public payable returns (uint64 sequence) {\n        BridgeStructs.TransferResult memory transferResult = _wrapAndTransferETH(arbiterFee);\n        sequence = logTransferWithPayload(transferResult.tokenChain, transferResult.tokenAddress, transferResult.normalizedAmount, recipientChain, recipient, transferResult.normalizedArbiterFee, transferResult.wormholeFee, nonce, payload);\n    }\n\n    function _wrapAndTransferETH(uint256 arbiterFee) internal returns (BridgeStructs.TransferResult memory transferResult) {\n        uint wormholeFee = wormhole().messageFee();\n\n        require(wormholeFee < msg.value, \"value is smaller than wormhole fee\");\n\n        uint amount = msg.value - wormholeFee;\n\n        require(arbiterFee <= amount, \"fee is bigger than amount minus wormhole fee\");\n\n        uint normalizedAmount = normalizeAmount(amount, 18);\n        uint normalizedArbiterFee = normalizeAmount(arbiterFee, 18);\n\n        // refund dust\n        uint dust = amount - deNormalizeAmount(normalizedAmount, 18);\n        if (dust > 0) {\n            payable(msg.sender).transfer(dust);\n        }\n\n        // deposit into WETH\n        WETH().deposit{\n            value : amount - dust\n        }();\n\n        // track and check outstanding token amounts\n        bridgeOut(address(WETH()), normalizedAmount);\n\n        transferResult = BridgeStructs.TransferResult({\n            tokenChain : chainId(),\n            tokenAddress : bytes32(uint256(uint160(address(WETH())))),\n            normalizedAmount : normalizedAmount,\n            normalizedArbiterFee : normalizedArbiterFee,\n            wormholeFee : wormholeFee\n        });\n    }\n\n    function transferTokens(address token, uint256 amount, uint16 recipientChain, bytes32 recipient, uint256 arbiterFee, uint32 nonce) public payable nonReentrant returns (uint64 sequence) {\n        BridgeStructs.TransferResult memory transferResult = _transferTokens(token, amount, arbiterFee);\n        sequence = logTransfer(transferResult.tokenChain, transferResult.tokenAddress, transferResult.normalizedAmount, recipientChain, recipient, transferResult.normalizedArbiterFee, transferResult.wormholeFee, nonce);\n    }\n\n    function transferTokensWithPayload(address token, uint256 amount, uint16 recipientChain, bytes32 recipient, uint256 arbiterFee, uint32 nonce, bytes memory payload) public payable nonReentrant returns (uint64 sequence) {\n        BridgeStructs.TransferResult memory transferResult = _transferTokens(token, amount, arbiterFee);\n        sequence = logTransferWithPayload(transferResult.tokenChain, transferResult.tokenAddress, transferResult.normalizedAmount, recipientChain, recipient, transferResult.normalizedArbiterFee, transferResult.wormholeFee, nonce, payload);\n    }\n\n    // Initiate a Transfer\n    function _transferTokens(address token, uint256 amount, uint256 arbiterFee) internal returns (BridgeStructs.TransferResult memory transferResult) {\n        // determine token parameters\n        uint16 tokenChain;\n        bytes32 tokenAddress;\n        if (isWrappedAsset(token)) {\n            tokenChain = TokenImplementation(token).chainId();\n            tokenAddress = TokenImplementation(token).nativeContract();\n        } else {\n            tokenChain = chainId();\n            tokenAddress = bytes32(uint256(uint160(token)));\n        }\n\n        // query tokens decimals\n        (,bytes memory queriedDecimals) = token.staticcall(abi.encodeWithSignature(\"decimals()\"));\n        uint8 decimals = abi.decode(queriedDecimals, (uint8));\n\n        // don't deposit dust that can not be bridged due to the decimal shift\n        amount = deNormalizeAmount(normalizeAmount(amount, decimals), decimals);\n\n        if (tokenChain == chainId()) {\n            // query own token balance before transfer\n            (,bytes memory queriedBalanceBefore) = token.staticcall(abi.encodeWithSelector(IERC20.balanceOf.selector, address(this)));\n            uint256 balanceBefore = abi.decode(queriedBalanceBefore, (uint256));\n\n            // transfer tokens\n            SafeERC20.safeTransferFrom(IERC20(token), msg.sender, address(this), amount);\n\n            // query own token balance after transfer\n            (,bytes memory queriedBalanceAfter) = token.staticcall(abi.encodeWithSelector(IERC20.balanceOf.selector, address(this)));\n            uint256 balanceAfter = abi.decode(queriedBalanceAfter, (uint256));\n\n            // correct amount for potential transfer fees\n            amount = balanceAfter - balanceBefore;\n        } else {\n            SafeERC20.safeTransferFrom(IERC20(token), msg.sender, address(this), amount);\n\n            TokenImplementation(token).burn(address(this), amount);\n        }\n\n        // normalize amounts decimals\n        uint256 normalizedAmount = normalizeAmount(amount, decimals);\n        uint256 normalizedArbiterFee = normalizeAmount(arbiterFee, decimals);\n\n        // track and check outstanding token amounts\n        if (tokenChain == chainId()) {\n            bridgeOut(token, normalizedAmount);\n        }\n\n        transferResult = BridgeStructs.TransferResult({\n            tokenChain : tokenChain,\n            tokenAddress : tokenAddress,\n            normalizedAmount : normalizedAmount,\n            normalizedArbiterFee : normalizedArbiterFee,\n            wormholeFee : msg.value\n        });\n    }\n\n    function normalizeAmount(uint256 amount, uint8 decimals) internal pure returns(uint256){\n        if (decimals > 8) {\n            amount /= 10 ** (decimals - 8);\n        }\n        return amount;\n    }\n\n    function deNormalizeAmount(uint256 amount, uint8 decimals) internal pure returns(uint256){\n        if (decimals > 8) {\n            amount *= 10 ** (decimals - 8);\n        }\n        return amount;\n    }\n\n    function logTransfer(uint16 tokenChain, bytes32 tokenAddress, uint256 amount, uint16 recipientChain, bytes32 recipient, uint256 fee, uint256 callValue, uint32 nonce) internal returns (uint64 sequence) {\n        require(fee <= amount, \"fee exceeds amount\");\n\n        BridgeStructs.Transfer memory transfer = BridgeStructs.Transfer({\n            payloadID : 1,\n            amount : amount,\n            tokenAddress : tokenAddress,\n            tokenChain : tokenChain,\n            to : recipient,\n            toChain : recipientChain,\n            fee : fee\n        });\n\n        bytes memory encoded = encodeTransfer(transfer);\n\n        sequence = wormhole().publishMessage{\n            value : callValue\n        }(nonce, encoded, 15);\n    }\n\n    function logTransferWithPayload(uint16 tokenChain, bytes32 tokenAddress, uint256 amount, uint16 recipientChain, bytes32 recipient, uint256 fee, uint256 callValue, uint32 nonce, bytes memory payload) internal returns (uint64 sequence) {\n        require(fee <= amount, \"fee exceeds amount\");\n\n        BridgeStructs.TransferWithPayload memory transfer = BridgeStructs.TransferWithPayload({\n            payloadID : 3,\n            amount : amount,\n            tokenAddress : tokenAddress,\n            tokenChain : tokenChain,\n            to : recipient,\n            toChain : recipientChain,\n            fee : fee,\n            payload : payload\n        });\n\n        bytes memory encoded = encodeTransferWithPayload(transfer);\n\n        sequence = wormhole().publishMessage{\n            value : callValue\n        }(nonce, encoded, 15);\n    }\n\n    function updateWrapped(bytes memory encodedVm) external returns (address token) {\n        (IWormhole.VM memory vm, bool valid, string memory reason) = wormhole().parseAndVerifyVM(encodedVm);\n\n        require(valid, reason);\n        require(verifyBridgeVM(vm), \"invalid emitter\");\n\n        BridgeStructs.AssetMeta memory meta = parseAssetMeta(vm.payload);\n        return _updateWrapped(meta, vm.sequence);\n    }\n\n    function _updateWrapped(BridgeStructs.AssetMeta memory meta, uint64 sequence) internal returns (address token) {\n        address wrapped = wrappedAsset(meta.tokenChain, meta.tokenAddress);\n        require(wrapped != address(0), \"wrapped asset does not exists\");\n\n        // Update metadata\n        TokenImplementation(wrapped).updateDetails(bytes32ToString(meta.name), bytes32ToString(meta.symbol), sequence);\n\n        return wrapped;\n    }\n\n    function createWrapped(bytes memory encodedVm) external returns (address token) {\n        (IWormhole.VM memory vm, bool valid, string memory reason) = wormhole().parseAndVerifyVM(encodedVm);\n\n        require(valid, reason);\n        require(verifyBridgeVM(vm), \"invalid emitter\");\n\n        BridgeStructs.AssetMeta memory meta = parseAssetMeta(vm.payload);\n        return _createWrapped(meta, vm.sequence);\n    }\n\n    // Creates a wrapped asset using AssetMeta\n    function _createWrapped(BridgeStructs.AssetMeta memory meta, uint64 sequence) internal returns (address token) {\n        require(meta.tokenChain != chainId(), \"can only wrap tokens from foreign chains\");\n        require(wrappedAsset(meta.tokenChain, meta.tokenAddress) == address(0), \"wrapped asset already exists\");\n\n        // initialize the TokenImplementation\n        bytes memory initialisationArgs = abi.encodeWithSelector(\n            TokenImplementation.initialize.selector,\n            bytes32ToString(meta.name),\n            bytes32ToString(meta.symbol),\n            meta.decimals,\n            sequence,\n\n            address(this),\n\n            meta.tokenChain,\n            meta.tokenAddress\n        );\n\n        // initialize the BeaconProxy\n        bytes memory constructorArgs = abi.encode(address(this), initialisationArgs);\n\n        // deployment code\n        bytes memory bytecode = abi.encodePacked(type(BridgeToken).creationCode, constructorArgs);\n\n        bytes32 salt = keccak256(abi.encodePacked(meta.tokenChain, meta.tokenAddress));\n\n        assembly {\n            token := create2(0, add(bytecode, 0x20), mload(bytecode), salt)\n\n            if iszero(extcodesize(token)) {\n                revert(0, 0)\n            }\n        }\n\n        setWrappedAsset(meta.tokenChain, meta.tokenAddress, token);\n    }\n\n    function completeTransferWithPayload(bytes memory encodedVm, address feeRecipient) public returns (bytes memory) {\n        return _completeTransfer(encodedVm, false, feeRecipient);\n    }\n\n    function completeTransferAndUnwrapETHWithPayload(bytes memory encodedVm, address feeRecipient) public returns (bytes memory) {\n        return _completeTransfer(encodedVm, true, feeRecipient);\n    }\n\n    function completeTransfer(bytes memory encodedVm) public {\n        _completeTransfer(encodedVm, false, msg.sender);\n    }\n\n    function completeTransferAndUnwrapETH(bytes memory encodedVm) public {\n        _completeTransfer(encodedVm, true, msg.sender);\n    }\n\n    // Execute a Transfer message\n    function _completeTransfer(bytes memory encodedVm, bool unwrapWETH, address feeRecipient) internal returns (bytes memory) {\n        (IWormhole.VM memory vm, bool valid, string memory reason) = wormhole().parseAndVerifyVM(encodedVm);\n\n        require(valid, reason);\n        require(verifyBridgeVM(vm), \"invalid emitter\");\n\n        BridgeStructs.Transfer memory transfer = parseTransfer(vm.payload);\n\n        // payload 3 must be redeemed by the designated proxy contract\n        address transferRecipient = address(uint160(uint256(transfer.to)));\n        if (transfer.payloadID == 3) {\n            require(msg.sender == transferRecipient, \"invalid sender\");\n        }\n\n        require(!isTransferCompleted(vm.hash), \"transfer already completed\");\n        setTransferCompleted(vm.hash);\n\n        require(transfer.toChain == chainId(), \"invalid target chain\");\n\n        IERC20 transferToken;\n        if (transfer.tokenChain == chainId()) {\n            transferToken = IERC20(address(uint160(uint256(transfer.tokenAddress))));\n\n            // track outstanding token amounts\n            bridgedIn(address(transferToken), transfer.amount);\n        } else {\n            address wrapped = wrappedAsset(transfer.tokenChain, transfer.tokenAddress);\n            require(wrapped != address(0), \"no wrapper for this token created yet\");\n\n            transferToken = IERC20(wrapped);\n        }\n\n        require(unwrapWETH == false || address(transferToken) == address(WETH()), \"invalid token, can only unwrap WETH\");\n\n        // query decimals\n        (,bytes memory queriedDecimals) = address(transferToken).staticcall(abi.encodeWithSignature(\"decimals()\"));\n        uint8 decimals = abi.decode(queriedDecimals, (uint8));\n\n        // adjust decimals\n        uint256 nativeAmount = deNormalizeAmount(transfer.amount, decimals);\n        uint256 nativeFee = deNormalizeAmount(transfer.fee, decimals);\n\n        // transfer fee to arbiter\n        if (nativeFee > 0 && transferRecipient != feeRecipient) {\n            require(nativeFee <= nativeAmount, \"fee higher than transferred amount\");\n\n            if (unwrapWETH) {\n                WETH().withdraw(nativeFee);\n\n                payable(feeRecipient).transfer(nativeFee);\n            } else {\n                if (transfer.tokenChain != chainId()) {\n                    // mint wrapped asset\n                    TokenImplementation(address(transferToken)).mint(feeRecipient, nativeFee);\n                } else {\n                    SafeERC20.safeTransfer(transferToken, feeRecipient, nativeFee);\n                }\n            }\n        } else {\n            // set fee to zero in case transferRecipient == feeRecipient\n            nativeFee = 0;\n        }\n\n        // transfer bridged amount to recipient\n        uint transferAmount = nativeAmount - nativeFee;\n\n        if (unwrapWETH) {\n            WETH().withdraw(transferAmount);\n\n            payable(transferRecipient).transfer(transferAmount);\n        } else {\n            if (transfer.tokenChain != chainId()) {\n                // mint wrapped asset\n                TokenImplementation(address(transferToken)).mint(transferRecipient, transferAmount);\n            } else {\n                SafeERC20.safeTransfer(transferToken, transferRecipient, transferAmount);\n            }\n        }\n\n        return vm.payload;\n    }\n\n    function bridgeOut(address token, uint normalizedAmount) internal {\n        uint outstanding = outstandingBridged(token);\n        require(outstanding + normalizedAmount <= type(uint64).max, \"transfer exceeds max outstanding bridged token amount\");\n        setOutstandingBridged(token, outstanding + normalizedAmount);\n    }\n\n    function bridgedIn(address token, uint normalizedAmount) internal {\n        setOutstandingBridged(token, outstandingBridged(token) - normalizedAmount);\n    }\n\n    function verifyBridgeVM(IWormhole.VM memory vm) internal view returns (bool){\n        if (bridgeContracts(vm.emitterChainId) == vm.emitterAddress) {\n            return true;\n        }\n\n        return false;\n    }\n\n    function encodeAssetMeta(BridgeStructs.AssetMeta memory meta) public pure returns (bytes memory encoded) {\n        encoded = abi.encodePacked(\n            meta.payloadID,\n            meta.tokenAddress,\n            meta.tokenChain,\n            meta.decimals,\n            meta.symbol,\n            meta.name\n        );\n    }\n\n    function encodeTransfer(BridgeStructs.Transfer memory transfer) public pure returns (bytes memory encoded) {\n        encoded = abi.encodePacked(\n            transfer.payloadID,\n            transfer.amount,\n            transfer.tokenAddress,\n            transfer.tokenChain,\n            transfer.to,\n            transfer.toChain,\n            transfer.fee\n        );\n    }\n\n    function encodeTransferWithPayload(BridgeStructs.TransferWithPayload memory transfer) public pure returns (bytes memory encoded) {\n        encoded = abi.encodePacked(\n            transfer.payloadID,\n            transfer.amount,\n            transfer.tokenAddress,\n            transfer.tokenChain,\n            transfer.to,\n            transfer.toChain,\n            transfer.fee,\n            transfer.payload\n        );\n    }\n\n    function parseAssetMeta(bytes memory encoded) public pure returns (BridgeStructs.AssetMeta memory meta) {\n        uint index = 0;\n\n        meta.payloadID = encoded.toUint8(index);\n        index += 1;\n\n        require(meta.payloadID == 2, \"invalid AssetMeta\");\n\n        meta.tokenAddress = encoded.toBytes32(index);\n        index += 32;\n\n        meta.tokenChain = encoded.toUint16(index);\n        index += 2;\n\n        meta.decimals = encoded.toUint8(index);\n        index += 1;\n\n        meta.symbol = encoded.toBytes32(index);\n        index += 32;\n\n        meta.name = encoded.toBytes32(index);\n        index += 32;\n\n        require(encoded.length == index, \"invalid AssetMeta\");\n    }\n\n    function parseTransfer(bytes memory encoded) public pure returns (BridgeStructs.Transfer memory transfer) {\n        uint index = 0;\n\n        transfer.payloadID = encoded.toUint8(index);\n        index += 1;\n\n        require(transfer.payloadID == 1 || transfer.payloadID == 3, \"invalid Transfer\");\n\n        transfer.amount = encoded.toUint256(index);\n        index += 32;\n\n        transfer.tokenAddress = encoded.toBytes32(index);\n        index += 32;\n\n        transfer.tokenChain = encoded.toUint16(index);\n        index += 2;\n\n        transfer.to = encoded.toBytes32(index);\n        index += 32;\n\n        transfer.toChain = encoded.toUint16(index);\n        index += 2;\n\n        transfer.fee = encoded.toUint256(index);\n        index += 32;\n\n        // payload 3 allows for an arbitrary additional payload\n        require(encoded.length == index || transfer.payloadID == 3, \"invalid Transfer\");\n    }\n\n    function bytes32ToString(bytes32 input) internal pure returns (string memory) {\n        uint256 i;\n        while (i < 32 && input[i] != 0) {\n            i++;\n        }\n        bytes memory array = new bytes(i);\n        for (uint c = 0; c < i; c++) {\n            array[c] = input[c];\n        }\n        return string(array);\n    }\n\n    // we need to accept ETH sends to unwrap WETH\n    receive() external payable {}\n}\n",
  "sourcePath": "/home/bee/Desktop/wormhole/ethereum/contracts/bridge/Bridge.sol",
  "compiler": {
    "name": "solc",
    "version": "0.8.4+commit.c7e474f2.Emscripten.clang"
  },
  "schemaVersion": "3.4.1",
  "updatedAt": "2022-06-19T09:55:33.948Z",
  "devdoc": {
    "kind": "dev",
    "methods": {},
    "version": 1
  },
  "userdoc": {
    "kind": "user",
    "methods": {},
    "version": 1
  }
}