{
  "contractName": "BridgeImplementation",
  "abi": [
    {
      "anonymous": false,
      "inputs": [
        {
          "indexed": false,
          "internalType": "address",
          "name": "previousAdmin",
          "type": "address"
        },
        {
          "indexed": false,
          "internalType": "address",
          "name": "newAdmin",
          "type": "address"
        }
      ],
      "name": "AdminChanged",
      "type": "event"
    },
    {
      "anonymous": false,
      "inputs": [
        {
          "indexed": true,
          "internalType": "address",
          "name": "beacon",
          "type": "address"
        }
      ],
      "name": "BeaconUpgraded",
      "type": "event"
    },
    {
      "anonymous": false,
      "inputs": [
        {
          "indexed": true,
          "internalType": "address",
          "name": "oldContract",
          "type": "address"
        },
        {
          "indexed": true,
          "internalType": "address",
          "name": "newContract",
          "type": "address"
        }
      ],
      "name": "ContractUpgraded",
      "type": "event"
    },
    {
      "anonymous": false,
      "inputs": [
        {
          "indexed": true,
          "internalType": "address",
          "name": "implementation",
          "type": "address"
        }
      ],
      "name": "Upgraded",
      "type": "event"
    },
    {
      "inputs": [],
      "name": "WETH",
      "outputs": [
        {
          "internalType": "contract IWETH",
          "name": "",
          "type": "address"
        }
      ],
      "stateMutability": "view",
      "type": "function"
    },
    {
      "inputs": [
        {
          "internalType": "address",
          "name": "tokenAddress",
          "type": "address"
        },
        {
          "internalType": "uint32",
          "name": "nonce",
          "type": "uint32"
        }
      ],
      "name": "attestToken",
      "outputs": [
        {
          "internalType": "uint64",
          "name": "sequence",
          "type": "uint64"
        }
      ],
      "stateMutability": "payable",
      "type": "function"
    },
    {
      "inputs": [
        {
          "internalType": "uint16",
          "name": "chainId_",
          "type": "uint16"
        }
      ],
      "name": "bridgeContracts",
      "outputs": [
        {
          "internalType": "bytes32",
          "name": "",
          "type": "bytes32"
        }
      ],
      "stateMutability": "view",
      "type": "function"
    },
    {
      "inputs": [],
      "name": "chainId",
      "outputs": [
        {
          "internalType": "uint16",
          "name": "",
          "type": "uint16"
        }
      ],
      "stateMutability": "view",
      "type": "function"
    },
    {
      "inputs": [
        {
          "internalType": "bytes",
          "name": "encodedVm",
          "type": "bytes"
        }
      ],
      "name": "completeTransfer",
      "outputs": [],
      "stateMutability": "nonpayable",
      "type": "function"
    },
    {
      "inputs": [
        {
          "internalType": "bytes",
          "name": "encodedVm",
          "type": "bytes"
        }
      ],
      "name": "completeTransferAndUnwrapETH",
      "outputs": [],
      "stateMutability": "nonpayable",
      "type": "function"
    },
    {
      "inputs": [
        {
          "internalType": "bytes",
          "name": "encodedVm",
          "type": "bytes"
        },
        {
          "internalType": "address",
          "name": "feeRecipient",
          "type": "address"
        }
      ],
      "name": "completeTransferAndUnwrapETHWithPayload",
      "outputs": [
        {
          "internalType": "bytes",
          "name": "",
          "type": "bytes"
        }
      ],
      "stateMutability": "nonpayable",
      "type": "function"
    },
    {
      "inputs": [
        {
          "internalType": "bytes",
          "name": "encodedVm",
          "type": "bytes"
        },
        {
          "internalType": "address",
          "name": "feeRecipient",
          "type": "address"
        }
      ],
      "name": "completeTransferWithPayload",
      "outputs": [
        {
          "internalType": "bytes",
          "name": "",
          "type": "bytes"
        }
      ],
      "stateMutability": "nonpayable",
      "type": "function"
    },
    {
      "inputs": [
        {
          "internalType": "bytes",
          "name": "encodedVm",
          "type": "bytes"
        }
      ],
      "name": "createWrapped",
      "outputs": [
        {
          "internalType": "address",
          "name": "token",
          "type": "address"
        }
      ],
      "stateMutability": "nonpayable",
      "type": "function"
    },
    {
      "inputs": [
        {
          "components": [
            {
              "internalType": "uint8",
              "name": "payloadID",
              "type": "uint8"
            },
            {
              "internalType": "bytes32",
              "name": "tokenAddress",
              "type": "bytes32"
            },
            {
              "internalType": "uint16",
              "name": "tokenChain",
              "type": "uint16"
            },
            {
              "internalType": "uint8",
              "name": "decimals",
              "type": "uint8"
            },
            {
              "internalType": "bytes32",
              "name": "symbol",
              "type": "bytes32"
            },
            {
              "internalType": "bytes32",
              "name": "name",
              "type": "bytes32"
            }
          ],
          "internalType": "struct BridgeStructs.AssetMeta",
          "name": "meta",
          "type": "tuple"
        }
      ],
      "name": "encodeAssetMeta",
      "outputs": [
        {
          "internalType": "bytes",
          "name": "encoded",
          "type": "bytes"
        }
      ],
      "stateMutability": "pure",
      "type": "function"
    },
    {
      "inputs": [
        {
          "components": [
            {
              "internalType": "uint8",
              "name": "payloadID",
              "type": "uint8"
            },
            {
              "internalType": "uint256",
              "name": "amount",
              "type": "uint256"
            },
            {
              "internalType": "bytes32",
              "name": "tokenAddress",
              "type": "bytes32"
            },
            {
              "internalType": "uint16",
              "name": "tokenChain",
              "type": "uint16"
            },
            {
              "internalType": "bytes32",
              "name": "to",
              "type": "bytes32"
            },
            {
              "internalType": "uint16",
              "name": "toChain",
              "type": "uint16"
            },
            {
              "internalType": "uint256",
              "name": "fee",
              "type": "uint256"
            }
          ],
          "internalType": "struct BridgeStructs.Transfer",
          "name": "transfer",
          "type": "tuple"
        }
      ],
      "name": "encodeTransfer",
      "outputs": [
        {
          "internalType": "bytes",
          "name": "encoded",
          "type": "bytes"
        }
      ],
      "stateMutability": "pure",
      "type": "function"
    },
    {
      "inputs": [
        {
          "components": [
            {
              "internalType": "uint8",
              "name": "payloadID",
              "type": "uint8"
            },
            {
              "internalType": "uint256",
              "name": "amount",
              "type": "uint256"
            },
            {
              "internalType": "bytes32",
              "name": "tokenAddress",
              "type": "bytes32"
            },
            {
              "internalType": "uint16",
              "name": "tokenChain",
              "type": "uint16"
            },
            {
              "internalType": "bytes32",
              "name": "to",
              "type": "bytes32"
            },
            {
              "internalType": "uint16",
              "name": "toChain",
              "type": "uint16"
            },
            {
              "internalType": "uint256",
              "name": "fee",
              "type": "uint256"
            },
            {
              "internalType": "bytes",
              "name": "payload",
              "type": "bytes"
            }
          ],
          "internalType": "struct BridgeStructs.TransferWithPayload",
          "name": "transfer",
          "type": "tuple"
        }
      ],
      "name": "encodeTransferWithPayload",
      "outputs": [
        {
          "internalType": "bytes",
          "name": "encoded",
          "type": "bytes"
        }
      ],
      "stateMutability": "pure",
      "type": "function"
    },
    {
      "inputs": [
        {
          "internalType": "bytes32",
          "name": "hash",
          "type": "bytes32"
        }
      ],
      "name": "governanceActionIsConsumed",
      "outputs": [
        {
          "internalType": "bool",
          "name": "",
          "type": "bool"
        }
      ],
      "stateMutability": "view",
      "type": "function"
    },
    {
      "inputs": [],
      "name": "governanceChainId",
      "outputs": [
        {
          "internalType": "uint16",
          "name": "",
          "type": "uint16"
        }
      ],
      "stateMutability": "view",
      "type": "function"
    },
    {
      "inputs": [],
      "name": "governanceContract",
      "outputs": [
        {
          "internalType": "bytes32",
          "name": "",
          "type": "bytes32"
        }
      ],
      "stateMutability": "view",
      "type": "function"
    },
    {
      "inputs": [
        {
          "internalType": "address",
          "name": "impl",
          "type": "address"
        }
      ],
      "name": "isInitialized",
      "outputs": [
        {
          "internalType": "bool",
          "name": "",
          "type": "bool"
        }
      ],
      "stateMutability": "view",
      "type": "function"
    },
    {
      "inputs": [
        {
          "internalType": "bytes32",
          "name": "hash",
          "type": "bytes32"
        }
      ],
      "name": "isTransferCompleted",
      "outputs": [
        {
          "internalType": "bool",
          "name": "",
          "type": "bool"
        }
      ],
      "stateMutability": "view",
      "type": "function"
    },
    {
      "inputs": [
        {
          "internalType": "address",
          "name": "token",
          "type": "address"
        }
      ],
      "name": "isWrappedAsset",
      "outputs": [
        {
          "internalType": "bool",
          "name": "",
          "type": "bool"
        }
      ],
      "stateMutability": "view",
      "type": "function"
    },
    {
      "inputs": [
        {
          "internalType": "address",
          "name": "token",
          "type": "address"
        }
      ],
      "name": "outstandingBridged",
      "outputs": [
        {
          "internalType": "uint256",
          "name": "",
          "type": "uint256"
        }
      ],
      "stateMutability": "view",
      "type": "function"
    },
    {
      "inputs": [
        {
          "internalType": "bytes",
          "name": "encoded",
          "type": "bytes"
        }
      ],
      "name": "parseAssetMeta",
      "outputs": [
        {
          "components": [
            {
              "internalType": "uint8",
              "name": "payloadID",
              "type": "uint8"
            },
            {
              "internalType": "bytes32",
              "name": "tokenAddress",
              "type": "bytes32"
            },
            {
              "internalType": "uint16",
              "name": "tokenChain",
              "type": "uint16"
            },
            {
              "internalType": "uint8",
              "name": "decimals",
              "type": "uint8"
            },
            {
              "internalType": "bytes32",
              "name": "symbol",
              "type": "bytes32"
            },
            {
              "internalType": "bytes32",
              "name": "name",
              "type": "bytes32"
            }
          ],
          "internalType": "struct BridgeStructs.AssetMeta",
          "name": "meta",
          "type": "tuple"
        }
      ],
      "stateMutability": "pure",
      "type": "function"
    },
    {
      "inputs": [
        {
          "internalType": "bytes",
          "name": "encoded",
          "type": "bytes"
        }
      ],
      "name": "parseRegisterChain",
      "outputs": [
        {
          "components": [
            {
              "internalType": "bytes32",
              "name": "module",
              "type": "bytes32"
            },
            {
              "internalType": "uint8",
              "name": "action",
              "type": "uint8"
            },
            {
              "internalType": "uint16",
              "name": "chainId",
              "type": "uint16"
            },
            {
              "internalType": "uint16",
              "name": "emitterChainID",
              "type": "uint16"
            },
            {
              "internalType": "bytes32",
              "name": "emitterAddress",
              "type": "bytes32"
            }
          ],
          "internalType": "struct BridgeStructs.RegisterChain",
          "name": "chain",
          "type": "tuple"
        }
      ],
      "stateMutability": "pure",
      "type": "function"
    },
    {
      "inputs": [
        {
          "internalType": "bytes",
          "name": "encoded",
          "type": "bytes"
        }
      ],
      "name": "parseTransfer",
      "outputs": [
        {
          "components": [
            {
              "internalType": "uint8",
              "name": "payloadID",
              "type": "uint8"
            },
            {
              "internalType": "uint256",
              "name": "amount",
              "type": "uint256"
            },
            {
              "internalType": "bytes32",
              "name": "tokenAddress",
              "type": "bytes32"
            },
            {
              "internalType": "uint16",
              "name": "tokenChain",
              "type": "uint16"
            },
            {
              "internalType": "bytes32",
              "name": "to",
              "type": "bytes32"
            },
            {
              "internalType": "uint16",
              "name": "toChain",
              "type": "uint16"
            },
            {
              "internalType": "uint256",
              "name": "fee",
              "type": "uint256"
            }
          ],
          "internalType": "struct BridgeStructs.Transfer",
          "name": "transfer",
          "type": "tuple"
        }
      ],
      "stateMutability": "pure",
      "type": "function"
    },
    {
      "inputs": [
        {
          "internalType": "bytes",
          "name": "encoded",
          "type": "bytes"
        }
      ],
      "name": "parseUpgrade",
      "outputs": [
        {
          "components": [
            {
              "internalType": "bytes32",
              "name": "module",
              "type": "bytes32"
            },
            {
              "internalType": "uint8",
              "name": "action",
              "type": "uint8"
            },
            {
              "internalType": "uint16",
              "name": "chainId",
              "type": "uint16"
            },
            {
              "internalType": "bytes32",
              "name": "newContract",
              "type": "bytes32"
            }
          ],
          "internalType": "struct BridgeStructs.UpgradeContract",
          "name": "chain",
          "type": "tuple"
        }
      ],
      "stateMutability": "pure",
      "type": "function"
    },
    {
      "inputs": [
        {
          "internalType": "bytes",
          "name": "encodedVM",
          "type": "bytes"
        }
      ],
      "name": "registerChain",
      "outputs": [],
      "stateMutability": "nonpayable",
      "type": "function"
    },
    {
      "inputs": [],
      "name": "tokenImplementation",
      "outputs": [
        {
          "internalType": "address",
          "name": "",
          "type": "address"
        }
      ],
      "stateMutability": "view",
      "type": "function"
    },
    {
      "inputs": [
        {
          "internalType": "address",
          "name": "token",
          "type": "address"
        },
        {
          "internalType": "uint256",
          "name": "amount",
          "type": "uint256"
        },
        {
          "internalType": "uint16",
          "name": "recipientChain",
          "type": "uint16"
        },
        {
          "internalType": "bytes32",
          "name": "recipient",
          "type": "bytes32"
        },
        {
          "internalType": "uint256",
          "name": "arbiterFee",
          "type": "uint256"
        },
        {
          "internalType": "uint32",
          "name": "nonce",
          "type": "uint32"
        }
      ],
      "name": "transferTokens",
      "outputs": [
        {
          "internalType": "uint64",
          "name": "sequence",
          "type": "uint64"
        }
      ],
      "stateMutability": "payable",
      "type": "function"
    },
    {
      "inputs": [
        {
          "internalType": "address",
          "name": "token",
          "type": "address"
        },
        {
          "internalType": "uint256",
          "name": "amount",
          "type": "uint256"
        },
        {
          "internalType": "uint16",
          "name": "recipientChain",
          "type": "uint16"
        },
        {
          "internalType": "bytes32",
          "name": "recipient",
          "type": "bytes32"
        },
        {
          "internalType": "uint256",
          "name": "arbiterFee",
          "type": "uint256"
        },
        {
          "internalType": "uint32",
          "name": "nonce",
          "type": "uint32"
        },
        {
          "internalType": "bytes",
          "name": "payload",
          "type": "bytes"
        }
      ],
      "name": "transferTokensWithPayload",
      "outputs": [
        {
          "internalType": "uint64",
          "name": "sequence",
          "type": "uint64"
        }
      ],
      "stateMutability": "payable",
      "type": "function"
    },
    {
      "inputs": [
        {
          "internalType": "bytes",
          "name": "encodedVm",
          "type": "bytes"
        }
      ],
      "name": "updateWrapped",
      "outputs": [
        {
          "internalType": "address",
          "name": "token",
          "type": "address"
        }
      ],
      "stateMutability": "nonpayable",
      "type": "function"
    },
    {
      "inputs": [
        {
          "internalType": "bytes",
          "name": "encodedVM",
          "type": "bytes"
        }
      ],
      "name": "upgrade",
      "outputs": [],
      "stateMutability": "nonpayable",
      "type": "function"
    },
    {
      "inputs": [],
      "name": "wormhole",
      "outputs": [
        {
          "internalType": "contract IWormhole",
          "name": "",
          "type": "address"
        }
      ],
      "stateMutability": "view",
      "type": "function"
    },
    {
      "inputs": [
        {
          "internalType": "uint16",
          "name": "recipientChain",
          "type": "uint16"
        },
        {
          "internalType": "bytes32",
          "name": "recipient",
          "type": "bytes32"
        },
        {
          "internalType": "uint256",
          "name": "arbiterFee",
          "type": "uint256"
        },
        {
          "internalType": "uint32",
          "name": "nonce",
          "type": "uint32"
        }
      ],
      "name": "wrapAndTransferETH",
      "outputs": [
        {
          "internalType": "uint64",
          "name": "sequence",
          "type": "uint64"
        }
      ],
      "stateMutability": "payable",
      "type": "function"
    },
    {
      "inputs": [
        {
          "internalType": "uint16",
          "name": "recipientChain",
          "type": "uint16"
        },
        {
          "internalType": "bytes32",
          "name": "recipient",
          "type": "bytes32"
        },
        {
          "internalType": "uint256",
          "name": "arbiterFee",
          "type": "uint256"
        },
        {
          "internalType": "uint32",
          "name": "nonce",
          "type": "uint32"
        },
        {
          "internalType": "bytes",
          "name": "payload",
          "type": "bytes"
        }
      ],
      "name": "wrapAndTransferETHWithPayload",
      "outputs": [
        {
          "internalType": "uint64",
          "name": "sequence",
          "type": "uint64"
        }
      ],
      "stateMutability": "payable",
      "type": "function"
    },
    {
      "inputs": [
        {
          "internalType": "uint16",
          "name": "tokenChainId",
          "type": "uint16"
        },
        {
          "internalType": "bytes32",
          "name": "tokenAddress",
          "type": "bytes32"
        }
      ],
      "name": "wrappedAsset",
      "outputs": [
        {
          "internalType": "address",
          "name": "",
          "type": "address"
        }
      ],
      "stateMutability": "view",
      "type": "function"
    },
    {
      "stateMutability": "payable",
      "type": "receive"
    },
    {
      "inputs": [],
      "name": "implementation",
      "outputs": [
        {
          "internalType": "address",
          "name": "",
          "type": "address"
        }
      ],
      "stateMutability": "view",
      "type": "function"
    },
    {
      "inputs": [],
      "name": "initialize",
      "outputs": [],
      "stateMutability": "nonpayable",
      "type": "function"
    }
  ],
  "bytecode": "0x608060405234801561001057600080fd5b506001600c556155cf806100256000396000f3fe608060405260043610620002335760003560e01c80639981509f116200012f578063c48fa11511620000ad578063f1777fd81162000078578063f1777fd81462000808578063f768441f146200082d578063fbe3c2cd1462000852578063fbeeacd91462000873578063ff200cde14620008d357600080fd5b8063c48fa115146200076a578063c68785191462000781578063d60b347f14620007a6578063e805981014620007e357600080fd5b8063ad5c464811620000fa578063ad5c46481462000690578063ad66a5f114620006b0578063b046223b14620006f4578063b172b2221462000719578063b96c7e4d146200073057600080fd5b80639981509f14620005f65780639a8a0592146200060d578063a5799f931462000637578063aa4efa5b146200065c57600080fd5b80632b51137511620001bd57806357a3a13e116200018857806357a3a13e146200055c5780635c60da1b14620005815780635f85426614620005995780638129fc1c14620005be57806384acd1bb14620005d657600080fd5b80632b511375146200044b5780632c3c02a414620004d45780632f3a3d5d14620005085780635662d9d8146200052857600080fd5b80631a2be4da11620001fe5780631a2be4da14620003815780631aa63eff14620003cf5780631ff1e28614620003e657806325394645146200042457600080fd5b806301f53255146200024057806307dfd8fb14620002be5780630f5287b0146200033a57806316a04a9d146200036a57600080fd5b366200023b57005b600080fd5b3480156200024d57600080fd5b50620002656200025f366004620040dc565b620008f8565b604051620002b59190600060a0820190508251825260ff6020840151166020830152604083015161ffff808216604085015280606086015116606085015250506080830151608083015292915050565b60405180910390f35b348015620002cb57600080fd5b50620002e3620002dd366004620040dc565b62000b02565b604051620002b59190600060c08201905060ff83511682526020830151602083015261ffff604084015116604083015260ff60608401511660608301526080830151608083015260a083015160a083015292915050565b620003516200034b36600462003f50565b62000c91565b6040516001600160401b039091168152602001620002b5565b620003516200037b36600462003fbb565b62000d35565b3480156200038e57600080fd5b50620003be620003a036600462003f33565b6001600160a01b031660009081526009602052604090205460ff1690565b6040519015158152602001620002b5565b62000351620003e0366004620045d3565b62000ddb565b348015620003f357600080fd5b506200040b6200040536600462004557565b62000e1d565b6040516001600160a01b039091168152602001620002b5565b3480156200043157600080fd5b506200044962000443366004620040dc565b62000e4c565b005b3480156200045857600080fd5b50620004706200046a366004620040dc565b62000f30565b604051620002b59190600060e08201905060ff83511682526020830151602083015260408301516040830152606083015161ffff8082166060850152608085015160808501528060a08601511660a0850152505060c083015160c083015292915050565b348015620004e157600080fd5b50620003be620004f3366004620040aa565b60009081526005602052604090205460ff1690565b3480156200051557600080fd5b506001546001600160a01b03166200040b565b3480156200053557600080fd5b506200054d6200054736600462004112565b6200110b565b604051620002b591906200479b565b3480156200056957600080fd5b506200054d6200057b36600462004112565b62001122565b3480156200058e57600080fd5b506200040b62001132565b348015620005a657600080fd5b506200054d620005b836600462004305565b6200114c565b348015620005cb57600080fd5b5062000449620011e1565b348015620005e357600080fd5b506000546001600160a01b03166200040b565b620003516200060736600462004585565b620012ab565b3480156200061a57600080fd5b5060025461ffff165b60405161ffff9091168152602001620002b5565b3480156200064457600080fd5b506200044962000656366004620040dc565b620012eb565b3480156200066957600080fd5b50620003be6200067b366004620040aa565b60009081526006602052604090205460ff1690565b3480156200069d57600080fd5b506004546001600160a01b03166200040b565b348015620006bd57600080fd5b50620006e5620006cf36600462004519565b61ffff166000908152600b602052604090205490565b604051908152602001620002b5565b3480156200070157600080fd5b506200054d6200071336600462004199565b62001458565b3480156200072657600080fd5b50600354620006e5565b3480156200073d57600080fd5b50620006e56200074f36600462003f33565b6001600160a01b03166000908152600a602052604090205490565b620003516200077b36600462004052565b620014d1565b3480156200078e57600080fd5b5062000449620007a0366004620040dc565b620017e2565b348015620007b357600080fd5b50620003be620007c536600462003f33565b6001600160a01b031660009081526007602052604090205460ff1690565b348015620007f057600080fd5b506200040b62000802366004620040dc565b620017f4565b3480156200081557600080fd5b506200054d6200082736600462004233565b62001909565b3480156200083a57600080fd5b506200040b6200084c366004620040dc565b6200194c565b3480156200085f57600080fd5b5060025462010000900461ffff1662000623565b3480156200088057600080fd5b506200089862000892366004620040dc565b62001a61565b604051620002b591908151815260208083015160ff169082015260408083015161ffff16908201526060918201519181019190915260800190565b348015620008e057600080fd5b5062000449620008f2366004620040dc565b62001c3c565b6040805160a0810182526000808252602082018190529181018290526060810182905260808101829052906200092f838262001c4a565b82526200093e60208262004991565b82519091506a546f6b656e42726964676514620009ae5760405162461bcd60e51b815260206004820152602360248201527f696e76616c6964205265676973746572436861696e3a2077726f6e67206d6f64604482015262756c6560e81b60648201526084015b60405180910390fd5b620009ba838262001cac565b60ff166020830152620009cf60018262004991565b9050816020015160ff1660011462000a365760405162461bcd60e51b815260206004820152602360248201527f696e76616c6964205265676973746572436861696e3a2077726f6e672061637460448201526234b7b760e91b6064820152608401620009a5565b62000a42838262001d0c565b61ffff16604083015262000a5860028262004991565b905062000a66838262001d0c565b61ffff16606083015262000a7c60028262004991565b905062000a8a838262001c4a565b608083015262000a9c60208262004991565b90508083511462000afc5760405162461bcd60e51b815260206004820152602360248201527f696e76616c6964205265676973746572436861696e3a2077726f6e67206c656e6044820152620cee8d60eb1b6064820152608401620009a5565b50919050565b6040805160c081018252600080825260208201819052918101829052606081018290526080810182905260a081018290529062000b40838262001cac565b60ff16825262000b5260018262004991565b9050816000015160ff1660021462000ba15760405162461bcd60e51b8152602060048201526011602482015270696e76616c69642041737365744d65746160781b6044820152606401620009a5565b62000bad838262001c4a565b60208084019190915262000bc2908262004991565b905062000bd0838262001d0c565b61ffff16604083015262000be660028262004991565b905062000bf4838262001cac565b60ff16606083015262000c0960018262004991565b905062000c17838262001c4a565b608083015262000c2960208262004991565b905062000c37838262001c4a565b60a083015262000c4960208262004991565b90508083511462000afc5760405162461bcd60e51b8152602060048201526011602482015270696e76616c69642041737365744d65746160781b6044820152606401620009a5565b60006002600c54141562000ce85760405162461bcd60e51b815260206004820152601f60248201527f5265656e7472616e637947756172643a207265656e7472616e742063616c6c006044820152606401620009a5565b6002600c55600062000cfc88888662001d6d565b905062000d248160000151826020015183604001518989866060015187608001518a6200221d565b6001600c5598975050505050505050565b60006002600c54141562000d8c5760405162461bcd60e51b815260206004820152601f60248201527f5265656e7472616e637947756172643a207265656e7472616e742063616c6c006044820152606401620009a5565b6002600c55600062000da089898762001d6d565b905062000dc98160000151826020015183604001518a8a866060015187608001518b8b6200235b565b6001600c559998505050505050505050565b60008062000de985620024a2565b905062000e128160000151826020015183604001518a8a866060015187608001518b8b6200235b565b979650505050505050565b61ffff821660009081526008602090815260408083208484529091529020546001600160a01b03165b92915050565b600080600062000e5c846200277c565b92509250925081819062000e855760405162461bcd60e51b8152600401620009a591906200479b565b5062000eab8361014001516000908152600560205260409020805460ff19166001179055565b600062000ebc8460e0015162001a61565b905062000ecc60025461ffff1690565b61ffff16816040015161ffff161462000f195760405162461bcd60e51b815260206004820152600e60248201526d1ddc9bdb99c818da185a5b881a5960921b6044820152606401620009a5565b606081015162000f2990620029ab565b5050505050565b6040805160e081018252600080825260208201819052918101829052606081018290526080810182905260a0810182905260c081018290529062000f75838262001cac565b60ff16825262000f8760018262004991565b9050816000015160ff166001148062000fa75750816000015160ff166003145b62000fe85760405162461bcd60e51b815260206004820152601060248201526f34b73b30b634b2102a3930b739b332b960811b6044820152606401620009a5565b62000ff4838262002ae2565b60208084019190915262001009908262004991565b905062001017838262001c4a565b60408301526200102960208262004991565b905062001037838262001d0c565b61ffff1660608301526200104d60028262004991565b90506200105b838262001c4a565b60808301526200106d60208262004991565b90506200107b838262001d0c565b61ffff1660a08301526200109160028262004991565b90506200109f838262002ae2565b60c0830152620010b160208262004991565b90508083511480620010ca5750816000015160ff166003145b62000afc5760405162461bcd60e51b815260206004820152601060248201526f34b73b30b634b2102a3930b739b332b960811b6044820152606401620009a5565b60606200111b8360018462002b3b565b9392505050565b60606200111b8360008462002b3b565b6000620011476001546001600160a01b031690565b905090565b8051602080830151604080850151606080870151608088015160a089015160c08a0151955160f89990991b6001600160f81b031916978901979097526021880195909552604187019290925260f091821b6001600160f01b03199081166061880152606387019490945293901b909116608384015260858301529060a5015b6040516020818303038152906040529050919050565b6000620012157f360894a13ba1a3210667c828492db98dca3e2076cc3735a920a3ca505d382bbc546001600160a01b031690565b90506200123a816001600160a01b031660009081526007602052604090205460ff1690565b156200127f5760405162461bcd60e51b8152602060048201526013602482015272185b1c9958591e481a5b9a5d1a585b1a5e9959606a1b6044820152606401620009a5565b620012a8816001600160a01b03166000908152600760205260409020805460ff19166001179055565b50565b600080620012b984620024a2565b9050620012e18160000151826020015183604001518989866060015187608001518a6200221d565b9695505050505050565b6000806000620012fb846200277c565b925092509250818190620013245760405162461bcd60e51b8152600401620009a591906200479b565b506200134a8361014001516000908152600560205260409020805460ff19166001179055565b60006200135b8460e00151620008f8565b90506200136b60025461ffff1690565b61ffff16816040015161ffff1614806200138b5750604081015161ffff16155b620013cc5760405162461bcd60e51b815260206004820152601060248201526f1a5b9d985b1a590818da185a5b881a5960821b6044820152606401620009a5565b606081015161ffff166000908152600b602052604081205414620014335760405162461bcd60e51b815260206004820152601860248201527f636861696e20616c7265616479207265676973746572656400000000000000006044820152606401620009a5565b62000f298160600151826080015161ffff9091166000908152600b6020526040902055565b8051602080830151604080850151606080870151608088015160a0890151945160f898891b6001600160f81b031990811698820198909852602181019690965260f09390931b6001600160f01b031916604186015290951b909316604383015260448201929092526064810191909152608401620011cb565b60408051600481526024810182526020810180516001600160e01b031663313ce56760e01b179052905160009182916001600160a01b038616916200151691620046b8565b600060405180830381855afa9150503d806000811462001553576040519150601f19603f3d011682016040523d82523d6000602084013e62001558565b606091505b5060408051600481526024810182526020810180516001600160e01b03166395d89b4160e01b1790529051919350600092506001600160a01b03871691620015a19190620046b8565b600060405180830381855afa9150503d8060008114620015de576040519150601f19603f3d011682016040523d82523d6000602084013e620015e3565b606091505b5060408051600481526024810182526020810180516001600160e01b03166306fdde0360e01b1790529051919350600092506001600160a01b038816916200162c9190620046b8565b600060405180830381855afa9150503d806000811462001669576040519150601f19603f3d011682016040523d82523d6000602084013e6200166e565b606091505b509150506000838060200190518101906200168a91906200466b565b9050600083806020019051810190620016a4919062004163565b9050600083806020019051810190620016be919062004163565b9050600080602084015191506020830151905060006040518060c00160405280600260ff1681526020018d6001600160a01b031660001b81526020016200170860025461ffff1690565b61ffff1681526020018760ff1681526020018481526020018381525090506000620017338262001458565b9050620017486000546001600160a01b031690565b6001600160a01b031663b19a437e348e84600f6040518563ffffffff1660e01b81526004016200177b9392919062004889565b6020604051808303818588803b1580156200179557600080fd5b505af1158015620017aa573d6000803e3d6000fd5b50505050506040513d601f19601f82011682018060405250810190620017d191906200464e565b9d9c50505050505050505050505050565b620017f08160003362002b3b565b5050565b6000806000806200180d6000546001600160a01b031690565b6001600160a01b031663c0fd8bde866040518263ffffffff1660e01b81526004016200183a91906200479b565b60006040518083038186803b1580156200185357600080fd5b505afa15801562001868573d6000803e3d6000fd5b505050506040513d6000823e601f3d908101601f19168201604052620018929190810190620043aa565b925092509250818190620018bb5760405162461bcd60e51b8152600401620009a591906200479b565b50620018c783620032ab565b620018e65760405162461bcd60e51b8152600401620009a59062004860565b6000620018f78460e0015162000b02565b9050620012e1818560a00151620032e8565b6060816000015182602001518360400151846060015185608001518660a001518760c001518860e00151604051602001620011cb98979695949392919062004709565b600080600080620019656000546001600160a01b031690565b6001600160a01b031663c0fd8bde866040518263ffffffff1660e01b81526004016200199291906200479b565b60006040518083038186803b158015620019ab57600080fd5b505afa158015620019c0573d6000803e3d6000fd5b505050506040513d6000823e601f3d908101601f19168201604052620019ea9190810190620043aa565b92509250925081819062001a135760405162461bcd60e51b8152600401620009a591906200479b565b5062001a1f83620032ab565b62001a3e5760405162461bcd60e51b8152600401620009a59062004860565b600062001a4f8460e0015162000b02565b9050620012e1818560a0015162003599565b60408051608081018252600080825260208201819052918101829052606081018290529062001a91838262001c4a565b825262001aa060208262004991565b82519091506a546f6b656e4272696467651462001b0e5760405162461bcd60e51b815260206004820152602560248201527f696e76616c69642055706772616465436f6e74726163743a2077726f6e67206d6044820152646f64756c6560d81b6064820152608401620009a5565b62001b1a838262001cac565b60ff16602083015262001b2f60018262004991565b9050816020015160ff1660021462001b985760405162461bcd60e51b815260206004820152602560248201527f696e76616c69642055706772616465436f6e74726163743a2077726f6e67206160448201526431ba34b7b760d91b6064820152608401620009a5565b62001ba4838262001d0c565b61ffff16604083015262001bba60028262004991565b905062001bc8838262001c4a565b606083015262001bda60208262004991565b90508083511462000afc5760405162461bcd60e51b815260206004820152602560248201527f696e76616c69642055706772616465436f6e74726163743a2077726f6e67206c6044820152640cadccee8d60db1b6064820152608401620009a5565b620017f08160013362002b3b565b600062001c5982602062004991565b8351101562001ca35760405162461bcd60e51b8152602060048201526015602482015274746f427974657333325f6f75744f66426f756e647360581b6044820152606401620009a5565b50016020015190565b600062001cbb82600162004991565b8351101562001d035760405162461bcd60e51b8152602060048201526013602482015272746f55696e74385f6f75744f66426f756e647360681b6044820152606401620009a5565b50016001015190565b600062001d1b82600262004991565b8351101562001d645760405162461bcd60e51b8152602060048201526014602482015273746f55696e7431365f6f75744f66426f756e647360601b6044820152606401620009a5565b50016002015190565b6040805160a0810182526000808252602082018190529181018290526060810182905260808101919091526001600160a01b038416600090815260096020526040812054819060ff161562001eb057856001600160a01b0316639a8a05926040518163ffffffff1660e01b815260040160206040518083038186803b15801562001df657600080fd5b505afa15801562001e0b573d6000803e3d6000fd5b505050506040513d601f19601f8201168201806040525081019062001e31919062004538565b9150856001600160a01b0316633d6c043b6040518163ffffffff1660e01b815260040160206040518083038186803b15801562001e6d57600080fd5b505afa15801562001e82573d6000803e3d6000fd5b505050506040513d601f19601f8201168201806040525081019062001ea89190620040c3565b905062001ec4565b505060025461ffff166001600160a01b0385165b60408051600481526024810182526020810180516001600160e01b031663313ce56760e01b17905290516000916001600160a01b0389169162001f089190620046b8565b600060405180830381855afa9150503d806000811462001f45576040519150601f19603f3d011682016040523d82523d6000602084013e62001f4a565b606091505b5091505060008180602001905181019062001f6691906200466b565b905062001f7f62001f78888362003694565b82620036d3565b965062001f8f60025461ffff1690565b61ffff168461ffff1614156200212f57604080513060248083019190915282518083039091018152604490910182526020810180516001600160e01b03166370a0823160e01b17905290516000916001600160a01b038b169162001ff49190620046b8565b600060405180830381855afa9150503d806000811462002031576040519150601f19603f3d011682016040523d82523d6000602084013e62002036565b606091505b50915050600081806020019051810190620020529190620040c3565b9050620020628a33308c62003708565b604080513060248083019190915282518083039091018152604490910182526020810180516001600160e01b03166370a0823160e01b17905290516000916001600160a01b038d1691620020b79190620046b8565b600060405180830381855afa9150503d8060008114620020f4576040519150601f19603f3d011682016040523d82523d6000602084013e620020f9565b606091505b50915050600081806020019051810190620021159190620040c3565b905062002123838262004af7565b9a5050505050620021a0565b6200213d8833308a62003708565b604051632770a7eb60e21b8152306004820152602481018890526001600160a01b03891690639dc29fac90604401600060405180830381600087803b1580156200218657600080fd5b505af11580156200219b573d6000803e3d6000fd5b505050505b6000620021ae888362003694565b90506000620021be888462003694565b9050620021ce60025461ffff1690565b61ffff168661ffff161415620021ea57620021ea8a836200377b565b6040805160a08101825261ffff909716875260208701959095529385015250506060820152346080820152949350505050565b600086841115620022665760405162461bcd60e51b815260206004820152601260248201527119995948195e18d959591cc8185b5bdd5b9d60721b6044820152606401620009a5565b6040805160e081018252600181526020810189905290810189905261ffff808b16606083015260808201879052871660a082015260c081018590526000620022ae826200114c565b9050620022c36000546001600160a01b031690565b6001600160a01b031663b19a437e868684600f6040518563ffffffff1660e01b8152600401620022f69392919062004889565b6020604051808303818588803b1580156200231057600080fd5b505af115801562002325573d6000803e3d6000fd5b50505050506040513d601f19601f820116820180604052508101906200234c91906200464e565b9b9a5050505050505050505050565b600087851115620023a45760405162461bcd60e51b815260206004820152601260248201527119995948195e18d959591cc8185b5bdd5b9d60721b6044820152606401620009a5565b604080516101008101825260038152602081018a90529081018a905261ffff808c16606083015260808201889052881660a082015260c0810186905260e081018390526000620023f48262001909565b9050620024096000546001600160a01b031690565b6001600160a01b031663b19a437e878784600f6040518563ffffffff1660e01b81526004016200243c9392919062004889565b6020604051808303818588803b1580156200245657600080fd5b505af11580156200246b573d6000803e3d6000fd5b50505050506040513d601f19601f820116820180604052508101906200249291906200464e565b9c9b505050505050505050505050565b6040805160a081018252600080825260208201819052918101829052606081018290526080810191909152600080546001600160a01b03166001600160a01b0316631a90a2196040518163ffffffff1660e01b815260040160206040518083038186803b1580156200251357600080fd5b505afa15801562002528573d6000803e3d6000fd5b505050506040513d601f19601f820116820180604052508101906200254e9190620040c3565b9050348110620025ac5760405162461bcd60e51b815260206004820152602260248201527f76616c756520697320736d616c6c6572207468616e20776f726d686f6c652066604482015261656560f01b6064820152608401620009a5565b6000620025ba823462004af7565b905080841115620026235760405162461bcd60e51b815260206004820152602c60248201527f66656520697320626967676572207468616e20616d6f756e74206d696e75732060448201526b776f726d686f6c652066656560a01b6064820152608401620009a5565b60006200263282601262003694565b905060006200264386601262003694565b9050600062002654836012620036d3565b62002660908562004af7565b905080156200269957604051339082156108fc029083906000818181858888f1935050505015801562002697573d6000803e3d6000fd5b505b6004546001600160a01b031663d0e30db0620026b6838762004af7565b6040518263ffffffff1660e01b81526004016000604051808303818588803b158015620026e257600080fd5b505af1158015620026f7573d6000803e3d6000fd5b50505050506200271a620027136004546001600160a01b031690565b846200377b565b6040518060a001604052806200273360025461ffff1690565b61ffff1681526020016200274f6004546001600160a01b031690565b6001600160a01b031660001b81526020018481526020018381526020018681525095505050505050919050565b604080516101608101825260008082526020820181905291810182905260608082018390526080820183905260a0820183905260c0820183905260e082018190526101008201839052610120820152610140810191909152600060606000806000620027f06000546001600160a01b031690565b6001600160a01b031663c0fd8bde886040518263ffffffff1660e01b81526004016200281d91906200479b565b60006040518083038186803b1580156200283657600080fd5b505afa1580156200284b573d6000803e3d6000fd5b505050506040513d6000823e601f3d908101601f19168201604052620028759190810190620043aa565b925092509250816200288e5791945092509050620029a4565b60025462010000900461ffff1661ffff16836060015161ffff1614620028ec5750506040805180820190915260168152753bb937b7339033b7bb32b93730b731b29031b430b4b760511b6020820152909350600092509050620029a4565b6003548360800151146200293f57505060408051808201909152601981527f77726f6e6720676f7665726e616e636520636f6e7472616374000000000000006020820152909350600092509050620029a4565b61014083015160009081526005602052604090205460ff161562002989578260006040518060600160405280602281526020016200557860229139955095509550505050620029a4565b50506040805160208101909152600081529093506001925090505b9193909250565b6000620029df7f360894a13ba1a3210667c828492db98dca3e2076cc3735a920a3ca505d382bbc546001600160a01b031690565b9050620029ec8262003848565b60408051600481526024810182526020810180516001600160e01b031663204a7f0760e21b179052905160009182916001600160a01b0386169162002a3191620046b8565b600060405180830381855af49150503d806000811462002a6e576040519150601f19603f3d011682016040523d82523d6000602084013e62002a73565b606091505b509150915081819062002a9b5760405162461bcd60e51b8152600401620009a591906200479b565b50836001600160a01b0316836001600160a01b03167f2e4cc16c100f0b55e2df82ab0b1a7e294aa9cbd01b48fbaf622683fbc0507a4960405160405180910390a350505050565b600062002af182602062004991565b8351101562001ca35760405162461bcd60e51b8152602060048201526015602482015274746f55696e743235365f6f75744f66426f756e647360581b6044820152606401620009a5565b6060600080600062002b556000546001600160a01b031690565b6001600160a01b031663c0fd8bde886040518263ffffffff1660e01b815260040162002b8291906200479b565b60006040518083038186803b15801562002b9b57600080fd5b505afa15801562002bb0573d6000803e3d6000fd5b505050506040513d6000823e601f3d908101601f1916820160405262002bda9190810190620043aa565b92509250925081819062002c035760405162461bcd60e51b8152600401620009a591906200479b565b5062002c0f83620032ab565b62002c2e5760405162461bcd60e51b8152600401620009a59062004860565b600062002c3f8460e0015162000f30565b608081015181519192509060ff166003141562002ca157336001600160a01b0382161462002ca15760405162461bcd60e51b815260206004820152600e60248201526d34b73b30b634b21039b2b73232b960911b6044820152606401620009a5565b61014085015160009081526006602052604090205460ff161562002d085760405162461bcd60e51b815260206004820152601a60248201527f7472616e7366657220616c726561647920636f6d706c657465640000000000006044820152606401620009a5565b62002d2d8561014001516000908152600660205260409020805460ff19166001179055565b60025461ffff1661ffff168260a0015161ffff161462002d875760405162461bcd60e51b815260206004820152601460248201527334b73b30b634b2103a30b933b2ba1031b430b4b760611b6044820152606401620009a5565b600062002d9760025461ffff1690565b61ffff16836060015161ffff16141562002dc957506040820151602083015162002dc39082906200388a565b62002e4a565b600062002ddf8460600151856040015162000e1d565b90506001600160a01b03811662002e475760405162461bcd60e51b815260206004820152602560248201527f6e6f207772617070657220666f72207468697320746f6b656e2063726561746560448201526419081e595d60da1b6064820152608401620009a5565b90505b88158062002e6557506004546001600160a01b038281169116145b62002ebf5760405162461bcd60e51b815260206004820152602360248201527f696e76616c696420746f6b656e2c2063616e206f6e6c7920756e77726170205760448201526208aa8960eb1b6064820152608401620009a5565b60408051600481526024810182526020810180516001600160e01b031663313ce56760e01b17905290516000916001600160a01b0384169162002f039190620046b8565b600060405180830381855afa9150503d806000811462002f40576040519150601f19603f3d011682016040523d82523d6000602084013e62002f45565b606091505b5091505060008180602001905181019062002f6191906200466b565b9050600062002f75866020015183620036d3565b9050600062002f898760c0015184620036d3565b905060008111801562002fae57508b6001600160a01b0316866001600160a01b031614155b156200314b5781811115620030115760405162461bcd60e51b815260206004820152602260248201527f66656520686967686572207468616e207472616e7366657272656420616d6f756044820152611b9d60f21b6064820152608401620009a5565b8c15620030b45760048054604051632e1a7d4d60e01b81529182018390526001600160a01b031690632e1a7d4d90602401600060405180830381600087803b1580156200305d57600080fd5b505af115801562003072573d6000803e3d6000fd5b50506040516001600160a01b038f16925083156108fc02915083906000818181858888f19350505050158015620030ad573d6000803e3d6000fd5b506200314f565b60025461ffff1661ffff16876060015161ffff161462003138576040516340c10f1960e01b81526001600160a01b038d81166004830152602482018390528616906340c10f1990604401600060405180830381600087803b1580156200311957600080fd5b505af11580156200312e573d6000803e3d6000fd5b505050506200314f565b62003145858d83620038bc565b6200314f565b5060005b60006200315d828462004af7565b90508d15620032025760048054604051632e1a7d4d60e01b81529182018390526001600160a01b031690632e1a7d4d90602401600060405180830381600087803b158015620031ab57600080fd5b505af1158015620031c0573d6000803e3d6000fd5b50506040516001600160a01b038a16925083156108fc02915083906000818181858888f19350505050158015620031fb573d6000803e3d6000fd5b5062003293565b60025461ffff1661ffff16886060015161ffff161462003286576040516340c10f1960e01b81526001600160a01b038881166004830152602482018390528716906340c10f1990604401600060405180830381600087803b1580156200326757600080fd5b505af11580156200327c573d6000803e3d6000fd5b5050505062003293565b62003293868883620038bc565b50505060e0909701519b9a5050505050505050505050565b60008160800151620032d1836060015161ffff166000908152600b602052604090205490565b1415620032e057506001919050565b506000919050565b6000620032f860025461ffff1690565b61ffff16836040015161ffff161415620033665760405162461bcd60e51b815260206004820152602860248201527f63616e206f6e6c79207772617020746f6b656e732066726f6d20666f726569676044820152676e20636861696e7360c01b6064820152608401620009a5565b60006001600160a01b0316620033858460400151856020015162000e1d565b6001600160a01b031614620033dd5760405162461bcd60e51b815260206004820152601c60248201527f7772617070656420617373657420616c726561647920657869737473000000006044820152606401620009a5565b600063c71f461560e01b620033f68560a00151620038ee565b620034058660800151620038ee565b8660600151863089604001518a602001516040516024016200342e9796959493929190620047f3565b60408051601f19818403018152918152602080830180516001600160e01b03166001600160e01b031990951694909417909352519092506000916200347891309185910162004775565b60405160208183030381529060405290506000604051806020016200349d9062003d21565b601f1982820381018352601f909101166040819052620034c391908490602001620046d6565b60405160208183030381529060405290506000866040015187602001516040516020016200350a92919060f09290921b6001600160f01b0319168252600282015260220190565b604051602081830303815290604052805190602001209050808251602084016000f59450843b6200353a57600080fd5b6040808801516020808a015161ffff90921660009081526008825283812092815291815282822080546001600160a01b0319166001600160a01b038a1690811790915582526009905220805460ff191660011790555050505092915050565b600080620035b08460400151856020015162000e1d565b90506001600160a01b0381166200360a5760405162461bcd60e51b815260206004820152601d60248201527f7772617070656420617373657420646f6573206e6f74206578697374730000006044820152606401620009a5565b806001600160a01b031663a18cd7c6620036288660a00151620038ee565b620036378760800151620038ee565b866040518463ffffffff1660e01b81526004016200365893929190620047b0565b600060405180830381600087803b1580156200367357600080fd5b505af115801562003688573d6000803e3d6000fd5b50929695505050505050565b600060088260ff161115620036cc57620036b060088362004b11565b620036bd90600a62004a16565b620036c99084620049ac565b92505b5090919050565b600060088260ff161115620036cc57620036ef60088362004b11565b620036fc90600a62004a16565b620036c9908462004ad5565b6040516001600160a01b0380851660248301528316604482015260648101829052620037759085906323b872dd60e01b906084015b60408051601f198184030181529190526020810180516001600160e01b03166001600160e01b03199093169290921790915262003a29565b50505050565b6001600160a01b0382166000908152600a60205260409020546001600160401b03620037a8838362004991565b1115620038165760405162461bcd60e51b815260206004820152603560248201527f7472616e736665722065786365656473206d6178206f75747374616e64696e6760448201527408189c9a5919d959081d1bdad95b88185b5bdd5b9d605a1b6064820152608401620009a5565b620038438362003827848462004991565b6001600160a01b039091166000908152600a6020526040902055565b505050565b620038538162003b02565b6040516001600160a01b038216907fbc7cd75a20ee27fd9adebab32041f755214dbc6bffa90cc0225b39da2e5c2d3b90600090a250565b620017f08282620038b0856001600160a01b03166000908152600a602052604090205490565b62003827919062004af7565b6040516001600160a01b0383166024820152604481018290526200384390849063a9059cbb60e01b906064016200373d565b606060005b6020811080156200393157508281602081106200392057634e487b7160e01b600052603260045260246000fd5b1a60f81b6001600160f81b03191615155b156200394c5780620039438162004b66565b915050620038f3565b6000816001600160401b038111156200397557634e487b7160e01b600052604160045260246000fd5b6040519080825280601f01601f191660200182016040528015620039a0576020820181803683370190505b50905060005b8281101562003a2157848160208110620039d057634e487b7160e01b600052603260045260246000fd5b1a60f81b828281518110620039f557634e487b7160e01b600052603260045260246000fd5b60200101906001600160f81b031916908160001a9053508062003a188162004b66565b915050620039a6565b509392505050565b600062003a80826040518060400160405280602081526020017f5361666545524332303a206c6f772d6c6576656c2063616c6c206661696c6564815250856001600160a01b031662003ba99092919063ffffffff16565b80519091501562003843578080602001905181019062003aa191906200408d565b620038435760405162461bcd60e51b815260206004820152602a60248201527f5361666545524332303a204552433230206f7065726174696f6e20646964206e6044820152691bdd081cdd58d8d9595960b21b6064820152608401620009a5565b803b62003b685760405162461bcd60e51b815260206004820152602d60248201527f455243313936373a206e657720696d706c656d656e746174696f6e206973206e60448201526c1bdd08184818dbdb9d1c9858dd609a1b6064820152608401620009a5565b7f360894a13ba1a3210667c828492db98dca3e2076cc3735a920a3ca505d382bbc80546001600160a01b0319166001600160a01b0392909216919091179055565b606062003bba848460008562003bc2565b949350505050565b60608247101562003c255760405162461bcd60e51b815260206004820152602660248201527f416464726573733a20696e73756666696369656e742062616c616e636520666f6044820152651c8818d85b1b60d21b6064820152608401620009a5565b843b62003c755760405162461bcd60e51b815260206004820152601d60248201527f416464726573733a2063616c6c20746f206e6f6e2d636f6e74726163740000006044820152606401620009a5565b600080866001600160a01b0316858760405162003c939190620046b8565b60006040518083038185875af1925050503d806000811462003cd2576040519150601f19603f3d011682016040523d82523d6000602084013e62003cd7565b606091505b509150915062000e128282866060831562003cf45750816200111b565b82511562003d055782518084602001fd5b8160405162461bcd60e51b8152600401620009a591906200479b565b6109938062004be583390190565b80356001600160a01b038116811462003d4757600080fd5b919050565b600082601f83011262003d5d578081fd5b815160206001600160401b0382111562003d7b5762003d7b62004b9a565b62003d8b818360051b0162004934565b80838252828201915082860187848660071b890101111562003dab578586fd5b855b8581101562003e1b57608080838b03121562003dc7578788fd5b62003dd1620048bd565b83518152868401518782015260408085015162003dee8162004bd4565b9082015260608481015162003e038162004bd4565b90820152855293850193919091019060010162003dad565b5090979650505050505050565b8051801515811462003d4757600080fd5b600082601f83011262003e4a578081fd5b813562003e6162003e5b8262004967565b62004934565b81815284602083860101111562003e76578283fd5b816020850160208301379081016020019190915292915050565b600082601f83011262003ea1578081fd5b815162003eb262003e5b8262004967565b81815284602083860101111562003ec7578283fd5b62003bba82602083016020870162004b37565b803562003d478162004bb0565b805162003d478162004bb0565b805162003d478162004bc1565b80516001600160401b038116811462003d4757600080fd5b803562003d478162004bd4565b805162003d478162004bd4565b60006020828403121562003f45578081fd5b6200111b8262003d2f565b60008060008060008060c0878903121562003f69578182fd5b62003f748762003d2f565b955060208701359450604087013562003f8d8162004bb0565b9350606087013592506080870135915060a087013562003fad8162004bc1565b809150509295509295509295565b600080600080600080600060e0888a03121562003fd6578485fd5b62003fe18862003d2f565b965060208801359550604088013562003ffa8162004bb0565b9450606088013593506080880135925060a08801356200401a8162004bc1565b915060c08801356001600160401b0381111562004035578182fd5b620040438a828b0162003e39565b91505092959891949750929550565b6000806040838503121562004065578182fd5b620040708362003d2f565b91506020830135620040828162004bc1565b809150509250929050565b6000602082840312156200409f578081fd5b6200111b8262003e28565b600060208284031215620040bc578081fd5b5035919050565b600060208284031215620040d5578081fd5b5051919050565b600060208284031215620040ee578081fd5b81356001600160401b0381111562004104578182fd5b62003bba8482850162003e39565b6000806040838503121562004125578182fd5b82356001600160401b038111156200413b578283fd5b620041498582860162003e39565b9250506200415a6020840162003d2f565b90509250929050565b60006020828403121562004175578081fd5b81516001600160401b038111156200418b578182fd5b62003bba8482850162003e90565b600060c08284031215620041ab578081fd5b60405160c081018181106001600160401b0382111715620041d057620041d062004b9a565b6040528235620041e08162004bd4565b8152602083810135908201526040830135620041fc8162004bb0565b60408201526060830135620042118162004bd4565b60608201526080838101359082015260a0928301359281019290925250919050565b60006020828403121562004245578081fd5b81356001600160401b03808211156200425c578283fd5b90830190610100828603121562004271578283fd5b6200427b620048e8565b620042868362003f19565b81526020830135602082015260408301356040820152620042aa6060840162003eda565b606082015260808301356080820152620042c760a0840162003eda565b60a082015260c083013560c082015260e083013582811115620042e8578485fd5b620042f68782860162003e39565b60e08301525095945050505050565b600060e0828403121562004317578081fd5b60405160e081018181106001600160401b03821117156200433c576200433c62004b9a565b60405282356200434c8162004bd4565b8082525060208301356020820152604083013560408201526060830135620043748162004bb0565b6060820152608083810135908201526200439160a0840162003eda565b60a082015260c083013560c08201528091505092915050565b600080600060608486031215620043bf578081fd5b83516001600160401b0380821115620043d6578283fd5b908501906101608288031215620043eb578283fd5b620043f56200490e565b620044008362003f26565b8152620044106020840162003ef4565b6020820152620044236040840162003ef4565b6040820152620044366060840162003ee7565b6060820152608083015160808201526200445360a0840162003f01565b60a08201526200446660c0840162003f26565b60c082015260e0830151828111156200447d578485fd5b6200448b8982860162003e90565b60e083015250610100620044a181850162003ef4565b908201526101208381015183811115620044b9578586fd5b620044c78a82870162003d4c565b918301919091525061014083810151908201529450620044ea6020870162003e28565b9350604086015191508082111562004500578283fd5b506200450f8682870162003e90565b9150509250925092565b6000602082840312156200452b578081fd5b81356200111b8162004bb0565b6000602082840312156200454a578081fd5b81516200111b8162004bb0565b600080604083850312156200456a578182fd5b8235620045778162004bb0565b946020939093013593505050565b600080600080608085870312156200459b578182fd5b8435620045a88162004bb0565b935060208501359250604085013591506060850135620045c88162004bc1565b939692955090935050565b600080600080600060a08688031215620045eb578283fd5b8535620045f88162004bb0565b945060208601359350604086013592506060860135620046188162004bc1565b915060808601356001600160401b0381111562004633578182fd5b620046418882890162003e39565b9150509295509295909350565b60006020828403121562004660578081fd5b6200111b8262003f01565b6000602082840312156200467d578081fd5b81516200111b8162004bd4565b60008151808452620046a481602086016020860162004b37565b601f01601f19169290920160200192915050565b60008251620046cc81846020870162004b37565b9190910192915050565b60008351620046ea81846020880162004b37565b8351908301906200470081836020880162004b37565b01949350505050565b60ff60f81b8960f81b168152876001820152866021820152600061ffff60f01b808860f01b166041840152866043840152808660f01b1660638401525083606583015282516200476181608585016020870162004b37565b919091016085019998505050505050505050565b6001600160a01b038316815260406020820181905260009062003bba908301846200468a565b6020815260006200111b60208301846200468a565b606081526000620047c560608301866200468a565b8281036020840152620047d981866200468a565b9150506001600160401b0383166040830152949350505050565b60e0815260006200480860e083018a6200468a565b82810360208401526200481c818a6200468a565b60ff98909816604084015250506001600160401b039490941660608501526001600160a01b0392909216608084015261ffff1660a083015260c09091015292915050565b6020808252600f908201526e34b73b30b634b21032b6b4ba3a32b960891b604082015260600190565b63ffffffff84168152606060208201526000620048aa60608301856200468a565b905060ff83166040830152949350505050565b604051608081016001600160401b0381118282101715620048e257620048e262004b9a565b60405290565b60405161010081016001600160401b0381118282101715620048e257620048e262004b9a565b60405161016081016001600160401b0381118282101715620048e257620048e262004b9a565b604051601f8201601f191681016001600160401b03811182821017156200495f576200495f62004b9a565b604052919050565b60006001600160401b0382111562004983576200498362004b9a565b50601f01601f191660200190565b60008219821115620049a757620049a762004b84565b500190565b600082620049c857634e487b7160e01b81526012600452602481fd5b500490565b600181815b8085111562004a0e578160001904821115620049f257620049f262004b84565b8085161562004a0057918102915b93841c9390800290620049d2565b509250929050565b60006200111b60ff84168360008262004a325750600162000e46565b8162004a415750600062000e46565b816001811462004a5a576002811462004a655762004a85565b600191505062000e46565b60ff84111562004a795762004a7962004b84565b50506001821b62000e46565b5060208310610133831016604e8410600b841016171562004aaa575081810a62000e46565b62004ab68383620049cd565b806000190482111562004acd5762004acd62004b84565b029392505050565b600081600019048311821515161562004af25762004af262004b84565b500290565b60008282101562004b0c5762004b0c62004b84565b500390565b600060ff821660ff84168082101562004b2e5762004b2e62004b84565b90039392505050565b60005b8381101562004b5457818101518382015260200162004b3a565b83811115620037755750506000910152565b600060001982141562004b7d5762004b7d62004b84565b5060010190565b634e487b7160e01b600052601160045260246000fd5b634e487b7160e01b600052604160045260246000fd5b61ffff81168114620012a857600080fd5b63ffffffff81168114620012a857600080fd5b60ff81168114620012a857600080fdfe608060405234801561001057600080fd5b5060405161099338038061099383398101604081905261002f9161048e565b818161005c60017fa3f0ad74e5423aebfd80d3ef4346578335a9a72aeaee59ff6cb3582b35133d51610599565b60008051602061094c8339815191521461008657634e487b7160e01b600052600160045260246000fd5b6100928282600061009b565b505050506105fe565b6100a483610175565b6040516001600160a01b038416907f1cf3b03a6cf19fa2baba4df148e9dcabedea7f8a5c07840e207e5c089be95d3e90600090a26000825111806100e55750805b156101705761016e836001600160a01b0316635c60da1b6040518163ffffffff1660e01b815260040160206040518083038186803b15801561012657600080fd5b505afa15801561013a573d6000803e3d6000fd5b505050506040513d601f19601f8201168201806040525081019061015e9190610474565b8361031560201b6100291760201c565b505b505050565b6101888161034160201b6100551760201c565b6101e75760405162461bcd60e51b815260206004820152602560248201527f455243313936373a206e657720626561636f6e206973206e6f74206120636f6e6044820152641d1c9858dd60da1b60648201526084015b60405180910390fd5b61026a816001600160a01b0316635c60da1b6040518163ffffffff1660e01b815260040160206040518083038186803b15801561022357600080fd5b505afa158015610237573d6000803e3d6000fd5b505050506040513d601f19601f8201168201806040525081019061025b9190610474565b61034160201b6100551760201c565b6102cf5760405162461bcd60e51b815260206004820152603060248201527f455243313936373a20626561636f6e20696d706c656d656e746174696f6e206960448201526f1cc81b9bdd08184818dbdb9d1c9858dd60821b60648201526084016101de565b806102f460008051602061094c83398151915260001b61034760201b61005b1760201c565b80546001600160a01b0319166001600160a01b039290921691909117905550565b606061033a838360405180606001604052806027815260200161096c6027913961034a565b9392505050565b3b151590565b90565b6060833b6103a95760405162461bcd60e51b815260206004820152602660248201527f416464726573733a2064656c65676174652063616c6c20746f206e6f6e2d636f6044820152651b9d1c9858dd60d21b60648201526084016101de565b600080856001600160a01b0316856040516103c4919061054a565b600060405180830381855af49150503d80600081146103ff576040519150601f19603f3d011682016040523d82523d6000602084013e610404565b606091505b50909250905061041582828661041f565b9695505050505050565b6060831561042e57508161033a565b82511561043e5782518084602001fd5b8160405162461bcd60e51b81526004016101de9190610566565b80516001600160a01b038116811461046f57600080fd5b919050565b600060208284031215610485578081fd5b61033a82610458565b600080604083850312156104a0578081fd5b6104a983610458565b60208401519092506001600160401b03808211156104c5578283fd5b818501915085601f8301126104d8578283fd5b8151818111156104ea576104ea6105e8565b604051601f8201601f19908116603f01168101908382118183101715610512576105126105e8565b8160405282815288602084870101111561052a578586fd5b61053b8360208301602088016105bc565b80955050505050509250929050565b6000825161055c8184602087016105bc565b9190910192915050565b60208152600082518060208401526105858160408501602087016105bc565b601f01601f19169190910160400192915050565b6000828210156105b757634e487b7160e01b81526011600452602481fd5b500390565b60005b838110156105d75781810151838201526020016105bf565b8381111561016e5750506000910152565b634e487b7160e01b600052604160045260246000fd5b61033f8061060d6000396000f3fe60806040523661001357610011610017565b005b6100115b61002761002261005e565b610106565b565b606061004e83836040518060600160405280602781526020016102e36027913961012a565b9392505050565b3b151590565b90565b60006100917fa3f0ad74e5423aebfd80d3ef4346578335a9a72aeaee59ff6cb3582b35133d50546001600160a01b031690565b6001600160a01b0316635c60da1b6040518163ffffffff1660e01b815260040160206040518083038186803b1580156100c957600080fd5b505afa1580156100dd573d6000803e3d6000fd5b505050506040513d601f19601f82011682018060405250810190610101919061023c565b905090565b3660008037600080366000845af43d6000803e808015610125573d6000f35b3d6000fd5b6060833b61018e5760405162461bcd60e51b815260206004820152602660248201527f416464726573733a2064656c65676174652063616c6c20746f206e6f6e2d636f6044820152651b9d1c9858dd60d21b60648201526084015b60405180910390fd5b600080856001600160a01b0316856040516101a99190610263565b600060405180830381855af49150503d80600081146101e4576040519150601f19603f3d011682016040523d82523d6000602084013e6101e9565b606091505b50915091506101f9828286610203565b9695505050505050565b6060831561021257508161004e565b8251156102225782518084602001fd5b8160405162461bcd60e51b8152600401610185919061027f565b60006020828403121561024d578081fd5b81516001600160a01b038116811461004e578182fd5b600082516102758184602087016102b2565b9190910192915050565b602081526000825180602084015261029e8160408501602087016102b2565b601f01601f19169190910160400192915050565b60005b838110156102cd5781810151838201526020016102b5565b838111156102dc576000848401525b5050505056fe416464726573733a206c6f772d6c6576656c2064656c65676174652063616c6c206661696c6564a26469706673582212203e23ac4f79a95247999f8e0df94ea5bd5e38561ccfd051b0ea50ba9aea59b8f164736f6c63430008040033a3f0ad74e5423aebfd80d3ef4346578335a9a72aeaee59ff6cb3582b35133d50416464726573733a206c6f772d6c6576656c2064656c65676174652063616c6c206661696c6564676f7665726e616e636520616374696f6e20616c726561647920636f6e73756d6564a2646970667358221220b2ff05a732e1e9288be9557968136db246f8e5523b84de6a071308eaa78aa1bf64736f6c63430008040033",
  "immutableReferences": {},
  "source": "// contracts/Implementation.sol\n// SPDX-License-Identifier: Apache 2\n\npragma solidity ^0.8.0;\npragma experimental ABIEncoderV2;\n\nimport \"@openzeppelin/contracts/proxy/ERC1967/ERC1967Upgrade.sol\";\n\nimport \"./Bridge.sol\";\n\n\ncontract BridgeImplementation is Bridge {\n    // Beacon getter for the token contracts\n    function implementation() public view returns (address) {\n        return tokenImplementation();\n    }\n\n    function initialize() initializer public virtual {\n        // this function needs to be exposed for an upgrade to pass\n    }\n\n    modifier initializer() {\n        address impl = ERC1967Upgrade._getImplementation();\n\n        require(\n            !isInitialized(impl),\n            \"already initialized\"\n        );\n\n        setInitialized(impl);\n\n        _;\n    }\n}\n",
  "sourcePath": "/home/bee/Desktop/wormhole/ethereum/contracts/bridge/BridgeImplementation.sol",
  "compiler": {
    "name": "solc",
    "version": "0.8.4+commit.c7e474f2.Emscripten.clang"
  },
  "schemaVersion": "3.4.1",
  "updatedAt": "2022-06-19T09:55:33.990Z",
  "devdoc": {
    "kind": "dev",
    "methods": {},
    "version": 1
  },
  "userdoc": {
    "kind": "user",
    "methods": {},
    "version": 1
  }
}