{
  "contractName": "MockNFTBridgeImplementation",
  "abi": [
    {
      "anonymous": false,
      "inputs": [
        {
          "indexed": false,
          "internalType": "address",
          "name": "previousAdmin",
          "type": "address"
        },
        {
          "indexed": false,
          "internalType": "address",
          "name": "newAdmin",
          "type": "address"
        }
      ],
      "name": "AdminChanged",
      "type": "event"
    },
    {
      "anonymous": false,
      "inputs": [
        {
          "indexed": true,
          "internalType": "address",
          "name": "beacon",
          "type": "address"
        }
      ],
      "name": "BeaconUpgraded",
      "type": "event"
    },
    {
      "anonymous": false,
      "inputs": [
        {
          "indexed": true,
          "internalType": "address",
          "name": "oldContract",
          "type": "address"
        },
        {
          "indexed": true,
          "internalType": "address",
          "name": "newContract",
          "type": "address"
        }
      ],
      "name": "ContractUpgraded",
      "type": "event"
    },
    {
      "anonymous": false,
      "inputs": [
        {
          "indexed": true,
          "internalType": "address",
          "name": "implementation",
          "type": "address"
        }
      ],
      "name": "Upgraded",
      "type": "event"
    },
    {
      "inputs": [
        {
          "internalType": "uint16",
          "name": "chainId_",
          "type": "uint16"
        }
      ],
      "name": "bridgeContracts",
      "outputs": [
        {
          "internalType": "bytes32",
          "name": "",
          "type": "bytes32"
        }
      ],
      "stateMutability": "view",
      "type": "function"
    },
    {
      "inputs": [],
      "name": "chainId",
      "outputs": [
        {
          "internalType": "uint16",
          "name": "",
          "type": "uint16"
        }
      ],
      "stateMutability": "view",
      "type": "function"
    },
    {
      "inputs": [
        {
          "internalType": "bytes",
          "name": "encodedVm",
          "type": "bytes"
        }
      ],
      "name": "completeTransfer",
      "outputs": [],
      "stateMutability": "nonpayable",
      "type": "function"
    },
    {
      "inputs": [
        {
          "components": [
            {
              "internalType": "bytes32",
              "name": "tokenAddress",
              "type": "bytes32"
            },
            {
              "internalType": "uint16",
              "name": "tokenChain",
              "type": "uint16"
            },
            {
              "internalType": "bytes32",
              "name": "symbol",
              "type": "bytes32"
            },
            {
              "internalType": "bytes32",
              "name": "name",
              "type": "bytes32"
            },
            {
              "internalType": "uint256",
              "name": "tokenID",
              "type": "uint256"
            },
            {
              "internalType": "string",
              "name": "uri",
              "type": "string"
            },
            {
              "internalType": "bytes32",
              "name": "to",
              "type": "bytes32"
            },
            {
              "internalType": "uint16",
              "name": "toChain",
              "type": "uint16"
            }
          ],
          "internalType": "struct NFTBridgeStructs.Transfer",
          "name": "transfer",
          "type": "tuple"
        }
      ],
      "name": "encodeTransfer",
      "outputs": [
        {
          "internalType": "bytes",
          "name": "encoded",
          "type": "bytes"
        }
      ],
      "stateMutability": "pure",
      "type": "function"
    },
    {
      "inputs": [
        {
          "internalType": "bytes32",
          "name": "hash",
          "type": "bytes32"
        }
      ],
      "name": "governanceActionIsConsumed",
      "outputs": [
        {
          "internalType": "bool",
          "name": "",
          "type": "bool"
        }
      ],
      "stateMutability": "view",
      "type": "function"
    },
    {
      "inputs": [],
      "name": "governanceChainId",
      "outputs": [
        {
          "internalType": "uint16",
          "name": "",
          "type": "uint16"
        }
      ],
      "stateMutability": "view",
      "type": "function"
    },
    {
      "inputs": [],
      "name": "governanceContract",
      "outputs": [
        {
          "internalType": "bytes32",
          "name": "",
          "type": "bytes32"
        }
      ],
      "stateMutability": "view",
      "type": "function"
    },
    {
      "inputs": [],
      "name": "implementation",
      "outputs": [
        {
          "internalType": "address",
          "name": "",
          "type": "address"
        }
      ],
      "stateMutability": "view",
      "type": "function"
    },
    {
      "inputs": [
        {
          "internalType": "address",
          "name": "impl",
          "type": "address"
        }
      ],
      "name": "isInitialized",
      "outputs": [
        {
          "internalType": "bool",
          "name": "",
          "type": "bool"
        }
      ],
      "stateMutability": "view",
      "type": "function"
    },
    {
      "inputs": [
        {
          "internalType": "bytes32",
          "name": "hash",
          "type": "bytes32"
        }
      ],
      "name": "isTransferCompleted",
      "outputs": [
        {
          "internalType": "bool",
          "name": "",
          "type": "bool"
        }
      ],
      "stateMutability": "view",
      "type": "function"
    },
    {
      "inputs": [
        {
          "internalType": "address",
          "name": "token",
          "type": "address"
        }
      ],
      "name": "isWrappedAsset",
      "outputs": [
        {
          "internalType": "bool",
          "name": "",
          "type": "bool"
        }
      ],
      "stateMutability": "view",
      "type": "function"
    },
    {
      "inputs": [
        {
          "internalType": "address",
          "name": "operator",
          "type": "address"
        },
        {
          "internalType": "address",
          "name": "",
          "type": "address"
        },
        {
          "internalType": "uint256",
          "name": "",
          "type": "uint256"
        },
        {
          "internalType": "bytes",
          "name": "",
          "type": "bytes"
        }
      ],
      "name": "onERC721Received",
      "outputs": [
        {
          "internalType": "bytes4",
          "name": "",
          "type": "bytes4"
        }
      ],
      "stateMutability": "view",
      "type": "function"
    },
    {
      "inputs": [
        {
          "internalType": "bytes",
          "name": "encoded",
          "type": "bytes"
        }
      ],
      "name": "parseRegisterChain",
      "outputs": [
        {
          "components": [
            {
              "internalType": "bytes32",
              "name": "module",
              "type": "bytes32"
            },
            {
              "internalType": "uint8",
              "name": "action",
              "type": "uint8"
            },
            {
              "internalType": "uint16",
              "name": "chainId",
              "type": "uint16"
            },
            {
              "internalType": "uint16",
              "name": "emitterChainID",
              "type": "uint16"
            },
            {
              "internalType": "bytes32",
              "name": "emitterAddress",
              "type": "bytes32"
            }
          ],
          "internalType": "struct NFTBridgeStructs.RegisterChain",
          "name": "chain",
          "type": "tuple"
        }
      ],
      "stateMutability": "pure",
      "type": "function"
    },
    {
      "inputs": [
        {
          "internalType": "bytes",
          "name": "encoded",
          "type": "bytes"
        }
      ],
      "name": "parseTransfer",
      "outputs": [
        {
          "components": [
            {
              "internalType": "bytes32",
              "name": "tokenAddress",
              "type": "bytes32"
            },
            {
              "internalType": "uint16",
              "name": "tokenChain",
              "type": "uint16"
            },
            {
              "internalType": "bytes32",
              "name": "symbol",
              "type": "bytes32"
            },
            {
              "internalType": "bytes32",
              "name": "name",
              "type": "bytes32"
            },
            {
              "internalType": "uint256",
              "name": "tokenID",
              "type": "uint256"
            },
            {
              "internalType": "string",
              "name": "uri",
              "type": "string"
            },
            {
              "internalType": "bytes32",
              "name": "to",
              "type": "bytes32"
            },
            {
              "internalType": "uint16",
              "name": "toChain",
              "type": "uint16"
            }
          ],
          "internalType": "struct NFTBridgeStructs.Transfer",
          "name": "transfer",
          "type": "tuple"
        }
      ],
      "stateMutability": "pure",
      "type": "function"
    },
    {
      "inputs": [
        {
          "internalType": "bytes",
          "name": "encoded",
          "type": "bytes"
        }
      ],
      "name": "parseUpgrade",
      "outputs": [
        {
          "components": [
            {
              "internalType": "bytes32",
              "name": "module",
              "type": "bytes32"
            },
            {
              "internalType": "uint8",
              "name": "action",
              "type": "uint8"
            },
            {
              "internalType": "uint16",
              "name": "chainId",
              "type": "uint16"
            },
            {
              "internalType": "bytes32",
              "name": "newContract",
              "type": "bytes32"
            }
          ],
          "internalType": "struct NFTBridgeStructs.UpgradeContract",
          "name": "chain",
          "type": "tuple"
        }
      ],
      "stateMutability": "pure",
      "type": "function"
    },
    {
      "inputs": [
        {
          "internalType": "bytes",
          "name": "encodedVM",
          "type": "bytes"
        }
      ],
      "name": "registerChain",
      "outputs": [],
      "stateMutability": "nonpayable",
      "type": "function"
    },
    {
      "inputs": [
        {
          "internalType": "uint256",
          "name": "tokenId",
          "type": "uint256"
        }
      ],
      "name": "splCache",
      "outputs": [
        {
          "components": [
            {
              "internalType": "bytes32",
              "name": "name",
              "type": "bytes32"
            },
            {
              "internalType": "bytes32",
              "name": "symbol",
              "type": "bytes32"
            }
          ],
          "internalType": "struct NFTBridgeStorage.SPLCache",
          "name": "",
          "type": "tuple"
        }
      ],
      "stateMutability": "view",
      "type": "function"
    },
    {
      "inputs": [],
      "name": "tokenImplementation",
      "outputs": [
        {
          "internalType": "address",
          "name": "",
          "type": "address"
        }
      ],
      "stateMutability": "view",
      "type": "function"
    },
    {
      "inputs": [
        {
          "internalType": "address",
          "name": "token",
          "type": "address"
        },
        {
          "internalType": "uint256",
          "name": "tokenID",
          "type": "uint256"
        },
        {
          "internalType": "uint16",
          "name": "recipientChain",
          "type": "uint16"
        },
        {
          "internalType": "bytes32",
          "name": "recipient",
          "type": "bytes32"
        },
        {
          "internalType": "uint32",
          "name": "nonce",
          "type": "uint32"
        }
      ],
      "name": "transferNFT",
      "outputs": [
        {
          "internalType": "uint64",
          "name": "sequence",
          "type": "uint64"
        }
      ],
      "stateMutability": "payable",
      "type": "function"
    },
    {
      "inputs": [
        {
          "internalType": "bytes",
          "name": "encodedVM",
          "type": "bytes"
        }
      ],
      "name": "upgrade",
      "outputs": [],
      "stateMutability": "nonpayable",
      "type": "function"
    },
    {
      "inputs": [],
      "name": "wormhole",
      "outputs": [
        {
          "internalType": "contract IWormhole",
          "name": "",
          "type": "address"
        }
      ],
      "stateMutability": "view",
      "type": "function"
    },
    {
      "inputs": [
        {
          "internalType": "uint16",
          "name": "tokenChainId",
          "type": "uint16"
        },
        {
          "internalType": "bytes32",
          "name": "tokenAddress",
          "type": "bytes32"
        }
      ],
      "name": "wrappedAsset",
      "outputs": [
        {
          "internalType": "address",
          "name": "",
          "type": "address"
        }
      ],
      "stateMutability": "view",
      "type": "function"
    },
    {
      "inputs": [],
      "name": "initialize",
      "outputs": [],
      "stateMutability": "nonpayable",
      "type": "function"
    },
    {
      "inputs": [],
      "name": "testNewImplementationActive",
      "outputs": [
        {
          "internalType": "bool",
          "name": "",
          "type": "bool"
        }
      ],
      "stateMutability": "pure",
      "type": "function"
    }
  ],
  "bytecode": "0x608060405234801561001057600080fd5b50613b99806100206000396000f3fe608060405260043610620001675760003560e01c806384acd1bb11620000c5578063c68785191162000078578063c68785191462000521578063c96616e11462000546578063d60b347f1462000576578063e6a853e014620005b3578063fbe3c2cd14620005e7578063fbeeacd9146200060857600080fd5b806384acd1bb14620004235780639a8a05921462000443578063a5799f93146200046d578063aa4efa5b1462000492578063ad66a5f114620004c6578063b172b222146200050a57600080fd5b80632b511375116200011e5780632b51137514620002f25780632c3c02a414620003265780632f3a3d5d146200035a5780633ca64826146200037a5780635c60da1b14620003f35780638129fc1c146200040b57600080fd5b806301f53255146200016c578063150b7a0214620001ea5780631a2be4da14620002295780631f8cdb2b14620002775780631ff1e286146200028d5780632539464514620002cb575b600080fd5b3480156200017957600080fd5b50620001916200018b36600462002a5a565b62000668565b604051620001e19190600060a0820190508251825260ff6020840151166020830152604083015161ffff808216604085015280606086015116606085015250506080830151608083015292915050565b60405180910390f35b348015620001f757600080fd5b506200020f620002093660046200290a565b62000870565b6040516001600160e01b03199091168152602001620001e1565b3480156200023657600080fd5b506200026662000248366004620028ed565b6001600160a01b031660009081526008602052604090205460ff1690565b6040519015158152602001620001e1565b3480156200028457600080fd5b50600162000266565b3480156200029a57600080fd5b50620002b2620002ac36600462002d50565b620008f4565b6040516001600160a01b039091168152602001620001e1565b348015620002d857600080fd5b50620002f0620002ea36600462002a5a565b62000920565b005b348015620002ff57600080fd5b50620003176200031136600462002a5a565b62000a04565b604051620001e1919062002f52565b3480156200033357600080fd5b50620002666200034536600462002a28565b60009081526004602052604090205460ff1690565b3480156200036757600080fd5b506001546001600160a01b0316620002b2565b3480156200038757600080fd5b50620003d76200039936600462002a28565b6040805180820190915260008082526020820152506000908152600a6020908152604091829020825180840190935280548352600101549082015290565b60408051825181526020928301519281019290925201620001e1565b3480156200040057600080fd5b50620002b262000bda565b3480156200041857600080fd5b50620002f062000bf4565b3480156200043057600080fd5b506000546001600160a01b0316620002b2565b3480156200045057600080fd5b5060025461ffff165b60405161ffff9091168152602001620001e1565b3480156200047a57600080fd5b50620002f06200048c36600462002a5a565b62000cbe565b3480156200049f57600080fd5b5062000266620004b136600462002a28565b60009081526005602052604090205460ff1690565b348015620004d357600080fd5b50620004fb620004e536600462002d12565b61ffff1660009081526009602052604090205490565b604051908152602001620001e1565b3480156200051757600080fd5b50600354620004fb565b3480156200052e57600080fd5b50620002f06200054036600462002a5a565b62000dc4565b6200055d62000557366004620029a8565b62000dcf565b6040516001600160401b039091168152602001620001e1565b3480156200058357600080fd5b506200026662000595366004620028ed565b6001600160a01b031660009081526006602052604090205460ff1690565b348015620005c057600080fd5b50620005d8620005d236600462002ada565b62001493565b604051620001e1919062002ee9565b348015620005f457600080fd5b5060025462010000900461ffff1662000459565b3480156200061557600080fd5b506200062d6200062736600462002a5a565b6200154f565b604051620001e191908151815260208083015160ff169082015260408083015161ffff16908201526060918201519181019190915260800190565b6040805160a0810182526000808252602082018190529181018290526060810182905260808101829052906200069f838262001728565b8252620006ae602082620030d8565b8251909150684e4654427269646765146200071c5760405162461bcd60e51b815260206004820152602360248201527f696e76616c6964205265676973746572436861696e3a2077726f6e67206d6f64604482015262756c6560e81b60648201526084015b60405180910390fd5b6200072883826200178a565b60ff1660208301526200073d600182620030d8565b9050816020015160ff16600114620007a45760405162461bcd60e51b815260206004820152602360248201527f696e76616c6964205265676973746572436861696e3a2077726f6e672061637460448201526234b7b760e91b606482015260840162000713565b620007b08382620017ea565b61ffff166040830152620007c6600282620030d8565b9050620007d48382620017ea565b61ffff166060830152620007ea600282620030d8565b9050620007f8838262001728565b60808301526200080a602082620030d8565b9050808351146200086a5760405162461bcd60e51b815260206004820152602360248201527f696e76616c6964205265676973746572436861696e3a2077726f6e67206c656e6044820152620cee8d60eb1b606482015260840162000713565b50919050565b60006001600160a01b0386163014620008e25760405162461bcd60e51b815260206004820152602d60248201527f63616e206f6e6c792062726964676520746f6b656e7320766961207472616e7360448201526c19995c939195081b595d1a1bd9609a1b606482015260840162000713565b50630a85bd0160e11b95945050505050565b61ffff91909116600090815260076020908152604080832093835292905220546001600160a01b031690565b600080600062000930846200184b565b925092509250818190620009595760405162461bcd60e51b815260040162000713919062002ee9565b506200097f8361014001516000908152600460205260409020805460ff19166001179055565b6000620009908460e001516200154f565b9050620009a060025461ffff1690565b61ffff16816040015161ffff1614620009ed5760405162461bcd60e51b815260206004820152600e60248201526d1ddc9bdb99c818da185a5b881a5960921b604482015260640162000713565b6060810151620009fd9062001a7a565b5050505050565b604080516101008101825260008082526020820181905291810182905260608082018390526080820183905260a082015260c0810182905260e08101829052908062000a5184826200178a565b905062000a60600183620030d8565b91508060ff1660011462000aaa5760405162461bcd60e51b815260206004820152601060248201526f34b73b30b634b2102a3930b739b332b960811b604482015260640162000713565b62000ab6848362001728565b835262000ac5602083620030d8565b915062000ad38483620017ea565b61ffff16602084015262000ae9600283620030d8565b915062000af7848362001728565b604084015262000b09602083620030d8565b915062000b17848362001728565b606084015262000b29602083620030d8565b915062000b37848362001bb1565b608084015262000b49602083620030d8565b915062000b58600183620030d8565b915062000b8582602284875162000b709190620030f3565b62000b7c9190620030f3565b86919062001c0a565b60a08401528351915062000b9b600283620030f3565b915062000ba98483620017ea565b61ffff1660e084015262000bbf602083620030f3565b915062000bcd848362001728565b60c0840152509092915050565b600062000bef6001546001600160a01b031690565b905090565b600062000c287f360894a13ba1a3210667c828492db98dca3e2076cc3735a920a3ca505d382bbc546001600160a01b031690565b905062000c4d816001600160a01b031660009081526006602052604090205460ff1690565b1562000c925760405162461bcd60e51b8152602060048201526013602482015272185b1c9958591e481a5b9a5d1a585b1a5e9959606a1b604482015260640162000713565b62000cbb816001600160a01b03166000908152600660205260409020805460ff19166001179055565b50565b600080600062000cce846200184b565b92509250925081819062000cf75760405162461bcd60e51b815260040162000713919062002ee9565b5062000d1d8361014001516000908152600460205260409020805460ff19166001179055565b600062000d2e8460e0015162000668565b905062000d3e60025461ffff1690565b61ffff16816040015161ffff16148062000d5e5750604081015161ffff16155b62000d9f5760405162461bcd60e51b815260206004820152601060248201526f1a5b9d985b1a590818da185a5b881a5960821b604482015260640162000713565b620009fd8160600151826080015161ffff909116600090815260096020526040902055565b62000cbb8162001d23565b600080600062000df7886001600160a01b031660009081526008602052604090205460ff1690565b1562000ef157876001600160a01b0316639a8a05926040518163ffffffff1660e01b815260040160206040518083038186803b15801562000e3757600080fd5b505afa15801562000e4c573d6000803e3d6000fd5b505050506040513d601f19601f8201168201806040525081019062000e72919062002d31565b9150876001600160a01b0316633d6c043b6040518163ffffffff1660e01b815260040160206040518083038186803b15801562000eae57600080fd5b505afa15801562000ec3573d6000803e3d6000fd5b505050506040513d601f19601f8201168201806040525081019062000ee9919062002a41565b9050620010bb565b60025461ffff166040516301ffc9a760e01b81526380ac58cd60e01b60048201529092506001600160a01b038916915081906301ffc9a79060240160206040518083038186803b15801562000f4557600080fd5b505afa15801562000f5a573d6000803e3d6000fd5b505050506040513d601f19601f8201168201806040525081019062000f80919062002a0b565b62000fd85760405162461bcd60e51b815260206004820152602160248201527f6d75737420737570706f7274207468652045524337323120696e7465726661636044820152606560f81b606482015260840162000713565b6040516301ffc9a760e01b8152635b5e139f60e01b60048201526001600160a01b038916906301ffc9a79060240160206040518083038186803b1580156200101f57600080fd5b505afa15801562001034573d6000803e3d6000fd5b505050506040513d601f19601f820116820180604052508101906200105a919062002a0b565b620010bb5760405162461bcd60e51b815260206004820152602a60248201527f6d75737420737570706f727420746865204552433732312d4d657461646174616044820152691032bc3a32b739b4b7b760b11b606482015260840162000713565b60608060608461ffff16600114620012155760408051600481526024810182526020810180516001600160e01b03166395d89b4160e01b17905290516000916001600160a01b038e169162001111919062002dc9565b600060405180830381855afa9150503d80600081146200114e576040519150601f19603f3d011682016040523d82523d6000602084013e62001153565b606091505b5060408051600481526024810182526020810180516001600160e01b03166306fdde0360e01b1790529051919350600092506001600160a01b038f16916200119c919062002dc9565b600060405180830381855afa9150503d8060008114620011d9576040519150601f19603f3d011682016040523d82523d6000602084013e620011de565b606091505b5091505081806020019051810190620011f8919062002aa4565b94508080602001905181019062001210919062002aa4565b935050505b60008b6001600160a01b03168b6040516024016200123591815260200190565b60408051601f198184030181529181526020820180516001600160e01b031663c87b56dd60e01b179052516200126c919062002dc9565b600060405180830381855afa9150503d8060008114620012a9576040519150601f19603f3d011682016040523d82523d6000602084013e620012ae565b606091505b5091505080806020019051810190620012c8919062002aa4565b9150506000808661ffff16600114156200134557604080518082018252600080825260209182018190528e8152600a825282812083518085019094528054845260010154918301919091529060208101518151909450925090506200133e8d6000908152600a6020526040812081815560010155565b5062001352565b5050602083810151908301515b604051632142170760e11b8152336004820152306024820152604481018d90526001600160a01b038e16906342842e0e90606401600060405180830381600087803b158015620013a157600080fd5b505af1158015620013b6573d6000803e3d6000fd5b50505050620013c860025461ffff1690565b61ffff168761ffff16146200143457604051630852cd8d60e31b8152600481018d90526001600160a01b038e16906342966c6890602401600060405180830381600087803b1580156200141a57600080fd5b505af11580156200142f573d6000803e3d6000fd5b505050505b620014826040518061010001604052808881526020018961ffff1681526020018481526020018381526020018e81526020018581526020018c81526020018d61ffff16815250348b62002107565b9d9c50505050505050505050505050565b606060c88260a00151511115620014f85760405162461bcd60e51b815260206004820152602260248201527f746f6b656e555249206d757374206e6f74206578636565642032303020627974604482015261657360f01b606482015260840162000713565b81516020808401516040808601516060870151608088015160a0890151805160c08b015160e08c01519651620015399a60019a909998939493910162002e1a565b6040516020818303038152906040529050919050565b6040805160808101825260008082526020820181905291810182905260608101829052906200157f838262001728565b82526200158e602082620030d8565b8251909150684e465442726964676514620015fa5760405162461bcd60e51b815260206004820152602560248201527f696e76616c69642055706772616465436f6e74726163743a2077726f6e67206d6044820152646f64756c6560d81b606482015260840162000713565b6200160683826200178a565b60ff1660208301526200161b600182620030d8565b9050816020015160ff16600214620016845760405162461bcd60e51b815260206004820152602560248201527f696e76616c69642055706772616465436f6e74726163743a2077726f6e67206160448201526431ba34b7b760d91b606482015260840162000713565b620016908382620017ea565b61ffff166040830152620016a6600282620030d8565b9050620016b4838262001728565b6060830152620016c6602082620030d8565b9050808351146200086a5760405162461bcd60e51b815260206004820152602560248201527f696e76616c69642055706772616465436f6e74726163743a2077726f6e67206c6044820152640cadccee8d60db1b606482015260840162000713565b600062001737826020620030d8565b83511015620017815760405162461bcd60e51b8152602060048201526015602482015274746f427974657333325f6f75744f66426f756e647360581b604482015260640162000713565b50016020015190565b600062001799826001620030d8565b83511015620017e15760405162461bcd60e51b8152602060048201526013602482015272746f55696e74385f6f75744f66426f756e647360681b604482015260640162000713565b50016001015190565b6000620017f9826002620030d8565b83511015620018425760405162461bcd60e51b8152602060048201526014602482015273746f55696e7431365f6f75744f66426f756e647360601b604482015260640162000713565b50016002015190565b604080516101608101825260008082526020820181905291810182905260608082018390526080820183905260a0820183905260c0820183905260e082018190526101008201839052610120820152610140810191909152600060606000806000620018bf6000546001600160a01b031690565b6001600160a01b031663c0fd8bde886040518263ffffffff1660e01b8152600401620018ec919062002ee9565b60006040518083038186803b1580156200190557600080fd5b505afa1580156200191a573d6000803e3d6000fd5b505050506040513d6000823e601f3d908101601f1916820160405262001944919081019062002ba3565b925092509250816200195d579194509250905062001a73565b60025462010000900461ffff1661ffff16836060015161ffff1614620019bb5750506040805180820190915260168152753bb937b7339033b7bb32b93730b731b29031b430b4b760511b602082015290935060009250905062001a73565b60035483608001511462001a0e57505060408051808201909152601981527f77726f6e6720676f7665726e616e636520636f6e747261637400000000000000602082015290935060009250905062001a73565b61014083015160009081526004602052604090205460ff161562001a585782600060405180606001604052806022815260200162003b426022913995509550955050505062001a73565b50506040805160208101909152600081529093506001925090505b9193909250565b600062001aae7f360894a13ba1a3210667c828492db98dca3e2076cc3735a920a3ca505d382bbc546001600160a01b031690565b905062001abb82620021bc565b60408051600481526024810182526020810180516001600160e01b031663204a7f0760e21b179052905160009182916001600160a01b0386169162001b009162002dc9565b600060405180830381855af49150503d806000811462001b3d576040519150601f19603f3d011682016040523d82523d6000602084013e62001b42565b606091505b509150915081819062001b6a5760405162461bcd60e51b815260040162000713919062002ee9565b50836001600160a01b0316836001600160a01b03167f2e4cc16c100f0b55e2df82ab0b1a7e294aa9cbd01b48fbaf622683fbc0507a4960405160405180910390a350505050565b600062001bc0826020620030d8565b83511015620017815760405162461bcd60e51b8152602060048201526015602482015274746f55696e743235365f6f75744f66426f756e647360581b604482015260640162000713565b60608162001c1a81601f620030d8565b101562001c5b5760405162461bcd60e51b815260206004820152600e60248201526d736c6963655f6f766572666c6f7760901b604482015260640162000713565b62001c678284620030d8565b8451101562001cad5760405162461bcd60e51b8152602060048201526011602482015270736c6963655f6f75744f66426f756e647360781b604482015260640162000713565b60608215801562001cce576040519150600082526020820160405262001d1a565b6040519150601f8416801560200281840101858101878315602002848b0101015b8183101562001d0957805183526020928301920162001cef565b5050858452601f01601f1916604052505b50949350505050565b600080600062001d3b6000546001600160a01b031690565b6001600160a01b031663c0fd8bde856040518263ffffffff1660e01b815260040162001d68919062002ee9565b60006040518083038186803b15801562001d8157600080fd5b505afa15801562001d96573d6000803e3d6000fd5b505050506040513d6000823e601f3d908101601f1916820160405262001dc0919081019062002ba3565b92509250925081819062001de95760405162461bcd60e51b815260040162000713919062002ee9565b5062001df583620021fe565b62001e355760405162461bcd60e51b815260206004820152600f60248201526e34b73b30b634b21032b6b4ba3a32b960891b604482015260640162000713565b600062001e468460e0015162000a04565b905062001e6784610140015160009081526005602052604090205460ff1690565b1562001eb65760405162461bcd60e51b815260206004820152601a60248201527f7472616e7366657220616c726561647920636f6d706c65746564000000000000604482015260640162000713565b62001edb8461014001516000908152600560205260409020805460ff19166001179055565b60025461ffff1661ffff168160e0015161ffff161462001f355760405162461bcd60e51b815260206004820152601460248201527334b73b30b634b2103a30b933b2ba1031b430b4b760611b604482015260640162000713565b600062001f4560025461ffff1690565b61ffff16826020015161ffff16141562001f625750805162001fad565b600062001f7883602001518460000151620008f4565b90506001600160a01b03811662001faa5762001fa783602001518460000151856060015186604001516200223b565b90505b90505b60c082015160025461ffff1661ffff16836020015161ffff16146200208c57826020015161ffff166001141562002018576080830151604080518082018252606086015181528186015160208083019182526000948552600a90529190922091518255516001909101555b608083015160a08401516040516334ff261960e21b81526001600160a01b0385169263d3fc98649262002052928692919060040162002ec0565b600060405180830381600087803b1580156200206d57600080fd5b505af115801562002082573d6000803e3d6000fd5b50505050620020fe565b6080830151604051632142170760e11b81523060048201526001600160a01b0383811660248301526044820192909252908316906342842e0e90606401600060405180830381600087803b158015620020e457600080fd5b505af1158015620020f9573d6000803e3d6000fd5b505050505b50505050505050565b600080620021158562001493565b90506200212a6000546001600160a01b031690565b6001600160a01b031663b19a437e858584600f6040518563ffffffff1660e01b81526004016200215d9392919062002fd0565b6020604051808303818588803b1580156200217757600080fd5b505af11580156200218c573d6000803e3d6000fd5b50505050506040513d601f19601f82011682018060405250810190620021b3919062002d7e565b95945050505050565b620021c781620024e8565b6040516001600160a01b038216907fbc7cd75a20ee27fd9adebab32041f755214dbc6bffa90cc0225b39da2e5c2d3b90600090a250565b6000816080015162002224836060015161ffff1660009081526009602052604090205490565b14156200223357506001919050565b506000919050565b60006200224b60025461ffff1690565b61ffff168561ffff161415620022b55760405162461bcd60e51b815260206004820152602860248201527f63616e206f6e6c79207772617020746f6b656e732066726f6d20666f726569676044820152676e20636861696e7360c01b606482015260840162000713565b6000620022c38686620008f4565b6001600160a01b0316146200231b5760405162461bcd60e51b815260206004820152601c60248201527f7772617070656420617373657420616c72656164792065786973747300000000604482015260640162000713565b8461ffff16600114156200235d577f576f726d686f6c65204272696467656420536f6c616e612d4e4654000000000092506915d3d49354d41313919560b21b91505b6000627ce50b60e31b62002371856200258f565b6200237c856200258f565b3089896040516024016200239595949392919062002efe565b60408051601f19818403018152918152602080830180516001600160e01b03166001600160e01b03199095169490941790935251909250600091620023df91309185910162002e9a565b60405160208183030381529060405290506000604051806020016200240490620026ca565b601f1982820381018352601f9091011660408190526200242a9190849060200162002de7565b60408051601f19818403018152908290526001600160f01b031960f08b901b166020830152602282018990529150600090604201604051602081830303815290604052805190602001209050808251602084016000f59450843b6200248e57600080fd5b61ffff891660009081526007602090815260408083208b8452825280832080546001600160a01b0319166001600160a01b038a16908117909155835260089091529020805460ff1916600117905550505050949350505050565b803b6200254e5760405162461bcd60e51b815260206004820152602d60248201527f455243313936373a206e657720696d706c656d656e746174696f6e206973206e60448201526c1bdd08184818dbdb9d1c9858dd609a1b606482015260840162000713565b7f360894a13ba1a3210667c828492db98dca3e2076cc3735a920a3ca505d382bbc80546001600160a01b0319166001600160a01b0392909216919091179055565b606060005b602081108015620025d25750828160208110620025c157634e487b7160e01b600052603260045260246000fd5b1a60f81b6001600160f81b03191615155b15620025ed5780620025e48162003140565b91505062002594565b6000816001600160401b038111156200261657634e487b7160e01b600052604160045260246000fd5b6040519080825280601f01601f19166020018201604052801562002641576020820181803683370190505b50905060005b82811015620026c2578481602081106200267157634e487b7160e01b600052603260045260246000fd5b1a60f81b8282815181106200269657634e487b7160e01b600052603260045260246000fd5b60200101906001600160f81b031916908160001a90535080620026b98162003140565b91505062002647565b509392505050565b61099380620031af83390190565b6000620026ef620026e984620030ae565b6200307b565b90508281528383830111156200270457600080fd5b828260208301376000602084830101529392505050565b80356001600160a01b03811681146200273357600080fd5b919050565b600082601f83011262002749578081fd5b815160206001600160401b0382111562002767576200276762003174565b62002777818360051b016200307b565b80838252828201915082860187848660071b890101111562002797578586fd5b855b858110156200280357608080838b031215620027b3578788fd5b620027bd62003004565b8351815286840151878201526040620027d8818601620028db565b908201526060620027eb858201620028db565b90820152855293850193919091019060010162002799565b5090979650505050505050565b805180151581146200273357600080fd5b600082601f83011262002832578081fd5b815162002843620026e982620030ae565b81815284602083860101111562002858578283fd5b6200286b8260208301602087016200310d565b949350505050565b600082601f83011262002884578081fd5b6200289583833560208501620026d8565b9392505050565b803562002733816200318a565b805162002733816200318a565b805162002733816200319b565b80516001600160401b03811681146200273357600080fd5b805160ff811681146200273357600080fd5b600060208284031215620028ff578081fd5b62002895826200271b565b60008060008060006080868803121562002922578081fd5b6200292d866200271b565b94506200293d602087016200271b565b93506040860135925060608601356001600160401b038082111562002960578283fd5b818801915088601f83011262002974578283fd5b81358181111562002983578384fd5b89602082850101111562002995578384fd5b9699959850939650602001949392505050565b600080600080600060a08688031215620029c0578283fd5b620029cb866200271b565b9450602086013593506040860135620029e4816200318a565b9250606086013591506080860135620029fd816200319b565b809150509295509295909350565b60006020828403121562002a1d578081fd5b620028958262002810565b60006020828403121562002a3a578081fd5b5035919050565b60006020828403121562002a53578081fd5b5051919050565b60006020828403121562002a6c578081fd5b81356001600160401b0381111562002a82578182fd5b8201601f8101841362002a93578182fd5b6200286b84823560208401620026d8565b60006020828403121562002ab6578081fd5b81516001600160401b0381111562002acc578182fd5b6200286b8482850162002821565b60006020828403121562002aec578081fd5b81356001600160401b038082111562002b03578283fd5b90830190610100828603121562002b18578283fd5b62002b226200302f565b8235815262002b34602084016200289c565b602082015260408301356040820152606083013560608201526080830135608082015260a08301358281111562002b69578485fd5b62002b778782860162002873565b60a08301525060c083013560c082015262002b9560e084016200289c565b60e082015295945050505050565b60008060006060848603121562002bb8578081fd5b83516001600160401b038082111562002bcf578283fd5b90850190610160828803121562002be4578283fd5b62002bee62003055565b62002bf983620028db565b815262002c0960208401620028b6565b602082015262002c1c60408401620028b6565b604082015262002c2f60608401620028a9565b60608201526080830151608082015262002c4c60a08401620028c3565b60a082015262002c5f60c08401620028db565b60c082015260e08301518281111562002c76578485fd5b62002c848982860162002821565b60e08301525061010062002c9a818501620028b6565b90820152610120838101518381111562002cb2578586fd5b62002cc08a82870162002738565b91830191909152506101408381015190820152945062002ce36020870162002810565b9350604086015191508082111562002cf9578283fd5b5062002d088682870162002821565b9150509250925092565b60006020828403121562002d24578081fd5b813562002895816200318a565b60006020828403121562002d43578081fd5b815162002895816200318a565b6000806040838503121562002d63578182fd5b823562002d70816200318a565b946020939093013593505050565b60006020828403121562002d90578081fd5b6200289582620028c3565b6000815180845262002db58160208601602086016200310d565b601f01601f19169290920160200192915050565b6000825162002ddd8184602087016200310d565b9190910192915050565b6000835162002dfb8184602088016200310d565b83519083019062002e118183602088016200310d565b01949350505050565b600060ff60f81b808d60f81b1683528b600184015261ffff60f01b808c60f01b1660218501528a6023850152896043850152886063850152818860f81b1660838501528651915062002e74826084860160208a016200310d565b920160848101949094525060f09190911b1660a482015260a60198975050505050505050565b6001600160a01b03831681526040602082018190526000906200286b9083018462002d9b565b60018060a01b0384168152826020820152606060408201526000620021b3606083018462002d9b565b60208152600062002895602083018462002d9b565b60a08152600062002f1360a083018862002d9b565b828103602084015262002f27818862002d9b565b6001600160a01b03969096166040840152505061ffff92909216606083015260809091015292915050565b60208152815160208201526000602083015161ffff80821660408501526040850151606085015260608501516080850152608085015160a085015260a085015191506101008060c086015262002fad61012086018462002d9b565b925060c086015160e08601528160e0870151168186015250508091505092915050565b63ffffffff8416815260606020820152600062002ff1606083018562002d9b565b905060ff83166040830152949350505050565b604051608081016001600160401b038111828210171562003029576200302962003174565b60405290565b60405161010081016001600160401b038111828210171562003029576200302962003174565b60405161016081016001600160401b038111828210171562003029576200302962003174565b604051601f8201601f191681016001600160401b0381118282101715620030a657620030a662003174565b604052919050565b60006001600160401b03821115620030ca57620030ca62003174565b50601f01601f191660200190565b60008219821115620030ee57620030ee6200315e565b500190565b6000828210156200310857620031086200315e565b500390565b60005b838110156200312a57818101518382015260200162003110565b838111156200313a576000848401525b50505050565b60006000198214156200315757620031576200315e565b5060010190565b634e487b7160e01b600052601160045260246000fd5b634e487b7160e01b600052604160045260246000fd5b61ffff8116811462000cbb57600080fd5b63ffffffff8116811462000cbb57600080fdfe608060405234801561001057600080fd5b5060405161099338038061099383398101604081905261002f9161048e565b818161005c60017fa3f0ad74e5423aebfd80d3ef4346578335a9a72aeaee59ff6cb3582b35133d51610599565b60008051602061094c8339815191521461008657634e487b7160e01b600052600160045260246000fd5b6100928282600061009b565b505050506105fe565b6100a483610175565b6040516001600160a01b038416907f1cf3b03a6cf19fa2baba4df148e9dcabedea7f8a5c07840e207e5c089be95d3e90600090a26000825111806100e55750805b156101705761016e836001600160a01b0316635c60da1b6040518163ffffffff1660e01b815260040160206040518083038186803b15801561012657600080fd5b505afa15801561013a573d6000803e3d6000fd5b505050506040513d601f19601f8201168201806040525081019061015e9190610474565b8361031560201b6100291760201c565b505b505050565b6101888161034160201b6100551760201c565b6101e75760405162461bcd60e51b815260206004820152602560248201527f455243313936373a206e657720626561636f6e206973206e6f74206120636f6e6044820152641d1c9858dd60da1b60648201526084015b60405180910390fd5b61026a816001600160a01b0316635c60da1b6040518163ffffffff1660e01b815260040160206040518083038186803b15801561022357600080fd5b505afa158015610237573d6000803e3d6000fd5b505050506040513d601f19601f8201168201806040525081019061025b9190610474565b61034160201b6100551760201c565b6102cf5760405162461bcd60e51b815260206004820152603060248201527f455243313936373a20626561636f6e20696d706c656d656e746174696f6e206960448201526f1cc81b9bdd08184818dbdb9d1c9858dd60821b60648201526084016101de565b806102f460008051602061094c83398151915260001b61034760201b61005b1760201c565b80546001600160a01b0319166001600160a01b039290921691909117905550565b606061033a838360405180606001604052806027815260200161096c6027913961034a565b9392505050565b3b151590565b90565b6060833b6103a95760405162461bcd60e51b815260206004820152602660248201527f416464726573733a2064656c65676174652063616c6c20746f206e6f6e2d636f6044820152651b9d1c9858dd60d21b60648201526084016101de565b600080856001600160a01b0316856040516103c4919061054a565b600060405180830381855af49150503d80600081146103ff576040519150601f19603f3d011682016040523d82523d6000602084013e610404565b606091505b50909250905061041582828661041f565b9695505050505050565b6060831561042e57508161033a565b82511561043e5782518084602001fd5b8160405162461bcd60e51b81526004016101de9190610566565b80516001600160a01b038116811461046f57600080fd5b919050565b600060208284031215610485578081fd5b61033a82610458565b600080604083850312156104a0578081fd5b6104a983610458565b60208401519092506001600160401b03808211156104c5578283fd5b818501915085601f8301126104d8578283fd5b8151818111156104ea576104ea6105e8565b604051601f8201601f19908116603f01168101908382118183101715610512576105126105e8565b8160405282815288602084870101111561052a578586fd5b61053b8360208301602088016105bc565b80955050505050509250929050565b6000825161055c8184602087016105bc565b9190910192915050565b60208152600082518060208401526105858160408501602087016105bc565b601f01601f19169190910160400192915050565b6000828210156105b757634e487b7160e01b81526011600452602481fd5b500390565b60005b838110156105d75781810151838201526020016105bf565b8381111561016e5750506000910152565b634e487b7160e01b600052604160045260246000fd5b61033f8061060d6000396000f3fe60806040523661001357610011610017565b005b6100115b61002761002261005e565b610106565b565b606061004e83836040518060600160405280602781526020016102e36027913961012a565b9392505050565b3b151590565b90565b60006100917fa3f0ad74e5423aebfd80d3ef4346578335a9a72aeaee59ff6cb3582b35133d50546001600160a01b031690565b6001600160a01b0316635c60da1b6040518163ffffffff1660e01b815260040160206040518083038186803b1580156100c957600080fd5b505afa1580156100dd573d6000803e3d6000fd5b505050506040513d601f19601f82011682018060405250810190610101919061023c565b905090565b3660008037600080366000845af43d6000803e808015610125573d6000f35b3d6000fd5b6060833b61018e5760405162461bcd60e51b815260206004820152602660248201527f416464726573733a2064656c65676174652063616c6c20746f206e6f6e2d636f6044820152651b9d1c9858dd60d21b60648201526084015b60405180910390fd5b600080856001600160a01b0316856040516101a99190610263565b600060405180830381855af49150503d80600081146101e4576040519150601f19603f3d011682016040523d82523d6000602084013e6101e9565b606091505b50915091506101f9828286610203565b9695505050505050565b6060831561021257508161004e565b8251156102225782518084602001fd5b8160405162461bcd60e51b8152600401610185919061027f565b60006020828403121561024d578081fd5b81516001600160a01b038116811461004e578182fd5b600082516102758184602087016102b2565b9190910192915050565b602081526000825180602084015261029e8160408501602087016102b2565b601f01601f19169190910160400192915050565b60005b838110156102cd5781810151838201526020016102b5565b838111156102dc576000848401525b5050505056fe416464726573733a206c6f772d6c6576656c2064656c65676174652063616c6c206661696c6564a2646970667358221220c383d12a666085db2eac57ee60d62a29e11c165ef3006d3555601869d9b9b8eb64736f6c63430008040033a3f0ad74e5423aebfd80d3ef4346578335a9a72aeaee59ff6cb3582b35133d50416464726573733a206c6f772d6c6576656c2064656c65676174652063616c6c206661696c6564676f7665726e616e636520616374696f6e20616c726561647920636f6e73756d6564a26469706673582212203002b314128b6b7f6acabb8ab08ce79a7ac4295040ec8e3334c5db82ceee66d064736f6c63430008040033",
  "immutableReferences": {},
  "source": "// contracts/Implementation.sol\n// SPDX-License-Identifier: Apache 2\n\npragma solidity ^0.8.0;\n\nimport \"../NFTBridgeImplementation.sol\";\n\ncontract MockNFTBridgeImplementation is NFTBridgeImplementation {\n    function initialize() initializer public override {\n        // this function needs to be exposed for an upgrade to pass\n    }\n\n    function testNewImplementationActive() external pure returns (bool) {\n        return true;\n    }\n}\n",
  "sourcePath": "/home/bee/Desktop/wormhole/ethereum/contracts/nft/mock/MockNFTBridgeImplementation.sol",
  "compiler": {
    "name": "solc",
    "version": "0.8.4+commit.c7e474f2.Emscripten.clang"
  },
  "schemaVersion": "3.4.1",
  "updatedAt": "2022-06-19T09:55:34.139Z",
  "devdoc": {
    "kind": "dev",
    "methods": {},
    "version": 1
  },
  "userdoc": {
    "kind": "user",
    "methods": {},
    "version": 1
  }
}